:020000040800F2
:10000000B8060020ED01000861180008FD1700087F
:100010005D180008E3030008691C000800000000E8
:10002000000000000000000000000000911800081F
:10003000E703000800000000651800089318000896
:10004000070200080702000807020008070200086C
:10005000070200080702000807020008070200085C
:10006000070200080702000807020008070200084C
:10007000070200080702000807020008070200083C
:10008000070200080702000807020008070200082C
:10009000070200080702000807020008070200081C
:1000A000070200080702000807020008070200080C
:1000B00007020008070200080702000807020008FC
:1000C00007020008070200080702000807020008EC
:1000D00007020008591C0008070200080702000870
:1000E00007020008070200080702000800000000DD
:1000F0000000000000000000000000000000000000
:1001000000000000000000000702000807020008CD
:10011000070200080702000807020008070200089B
:10012000070200080702000807020008070200088B
:10013000070200080702000807020008070200087B
:10014000070200080702000807020008070200086B
:1001500000F002F800F03AF80AA090E8000C82449F
:100160008344AAF10107DA4501D100F02FF8AFF27C
:10017000090EBAE80F0013F0010F18BFFB1A43F085
:1001800001031847601B0000801B0000103A24BFC9
:1001900078C878C1FAD8520724BF30C830C144BFEC
:1001A00004680C607047000000230024002500262E
:1001B000103A28BF78C1FBD8520728BF30C148BFCA
:1001C0000B6070471FB51FBD10B510BD00F0CFF814
:1001D0001146FFF7F7FF01F065FD00F0EDF803B4FD
:1001E000FFF7F2FF03BC00F0F5F800000948804774
:1001F00009480047FEE7FEE7FEE7FEE7FEE7FEE709
:10020000FEE7FEE7FEE7FEE704480549054A064B20
:1002100070470000F918000851010008B8000020DC
:10022000B8060020B8020020B802002053EA020CF1
:1002300000F069802DE9F04B4FF00006002B1FBF46
:10024000B3FA83F503FA05F424FA05F65E4012BF0B
:100250001643B2FA82F502FA05F4C5F120051EBF75
:1002600022FA05FC44EA0C04203556EA044C4FEA15
:10027000144418BF641C4FF000084FF0000990426E
:1002800071EB030C39D3002919BFB1FA81F701FAD8
:1002900007F6B0FA80F700FA07F6C7F120071EBF8D
:1002A00020FA07FC46EA0C062037B6FBF4FCA7EB65
:1002B0000507103F07F01F0BCBF120060CFA0BFBD4
:1002C0002CFA06F644BFB3460026202FA4BF5E4694
:1002D0004FF0000B5BEA060C08BF4FF0010B19EB67
:1002E0000B09ABFB027C48EB0608C01B06FB02CCEB
:1002F0000BFB03CC71EB0C01C1E70B4602464146F8
:100300004846BDE8F08B13B54FF000004FF00001F8
:10031000AFF30080BDE81C4070474FF0000200B50D
:10032000134694469646203922BFA0E80C50A0E818
:100330000C50B1F12001BFF4F7AF090728BFA0E8C6
:100340000C5048BF0CC05DF804EB890028BF40F892
:10035000042B08BF704748BF20F8022B11F0804FD4
:1003600018BF00F8012B70477047704770477546FB
:1003700000F02CF8AE4605006946534620F0070011
:10038000854618B020B5FFF73FFFBDE820404FF08D
:1003900000064FF000074FF000084FF0000B21F06F
:1003A0000701AC46ACE8C009ACE8C009ACE8C0093C
:1003B000ACE8C0098D46704710B50446AFF3008025
:1003C0002046BDE81040FFF70ABF00000048704714
:1003D0005800002001491820ABBEFEE726000200AD
:1003E000704700BFFEE7704772B600BFFEE70146E8
:1003F000002291F82100022808D00420886300BF61
:10040000002081F8200000BF0120704708680068C4
:1004100020F00E000B6818600868006820F00100EA
:100420000B68186091F8403001209840CB6B586001
:10043000012081F8210000BF002081F8200000BFCA
:100440001046E2E770B50446002594F82100022822
:1004500003D00420A0630125C1E02068006820F0DB
:100460000E00216808602068006820F00100216803
:1004700008605C492068884252D95A497839206816
:10048000884201D1012047E05649643920688842FA
:1004900001D1102040E0534950392068884201D1F1
:1004A000801539E04F493C392068884201D18014D9
:1004B00032E04C4928392068884202D14FF480301C
:1004C0002AE0484914392068884202D14FF480104C
:1004D00022E044492068884201D140041CE042499E
:1004E0002068884201D1012016E03F49143120687C
:1004F000884201D110200FE03B4928312068884212
:1005000001D1801508E038493C312068884201D18A
:10051000801401E04FF480303349091F086051E036
:10052000304978392068884201D1012047E02D49BF
:1005300064392068884201D1102040E029495039AF
:100540002068884201D1801539E026493C3920686D
:10055000884201D1801432E022492839206888423B
:1005600002D14FF480302AE01E49143920688842B5
:1005700002D14FF4801022E01A492068884201D14C
:1005800040041CE018492068884201D1012016E08F
:10059000154914312068884201D110200FE012491A
:1005A00028312068884201D1801508E00E493C318D
:1005B0002068884201D1801401E04FF4803009495D
:1005C00080394860012084F8210000BF002084F8B1
:1005D000200000BF606B10B12046616B8847284641
:1005E00070BD000080000240080402402DE9F84779
:1005F0000346002294466EE14FF0010808FA02F427
:10060000D1F8008008EA0400A0427DD1DFF8DCA226
:10061000D1F80480A8EB0A09D0453AD014DCB8F12F
:10062000030F50D009DCB8F1000F31D0B8F1010F41
:100630001CD0B8F1020F49D120E0B8F1110F18D049
:10064000B8F1120F42D11EE0B9F5881F25D006DCA3
:10065000B9F5803F20D0B9F5801F37D11AE0B9F540
:10066000001F18D0B9F5041F30D117E0D1F80CC025
:100670002DE0D1F80C8008F1040C28E0D1F80C80B2
:1006800008F1080C23E0D1F80C8008F10C0C1EE0F6
:1006900000BF00BF00BF00BF00BF00BFD1F808808F
:1006A000B8F1000F02D14FF0040C0BE0D1F8088034
:1006B000B8F1010F03D14FF0080C1C6102E04FF0BC
:1006C000080C5C6103E04FF0000C00E000BF00BFCD
:1006D000FF2801D8984601E003F104084646FF28A8
:1006E00002D84FEA820803E0A2F108084FEA88081E
:1006F0004746D6F800804FF00F0909FA07F928EAB3
:1007000009080CFA07F900E088E048EA0908C6F889
:100710000080D1F8048008F08058B8F1805F7DD166
:1007200000BFDFF8CC81D8F8188048F00108DFF866
:10073000C091C9F81880C846D8F8188008F0010898
:10074000CDF8008000BF00BF4FEAB9384FEA9209E8
:1007500058F829504FEA82784FEA18794FF00F087D
:1007600008FA09F825EA0805DFF88881434502D12F
:100770004FF0000816E0DFF88081434502D14FF0CA
:1007800001080FE0DFF87481434502D14FF0020801
:1007900008E0DFF86C81434502D14FF0030801E027
:1007A0004FF004084FEA82794FEA197908FA09F8FC
:1007B00048EA0505DFF84C814FEA920948F82950CC
:1007C000D1F8048008F48038B8F5803F0AD1DFF80A
:1007D0003881D8F8008048EA0008DFF82C91C9F881
:1007E000008009E0DFF82081D8F8008028EA0008BE
:1007F000DFF81491C9F80080D1F8048008F40038BB
:10080000B8F5003F10D1DFF8008108F10408D8F8EE
:10081000008048EA0008DFF8F09000E05AE009F1B3
:100820000409C9F800800DE0DFF8DC8008F1040855
:10083000D8F8008028EA0008DFF8CC9009F1040914
:10084000C9F80080D1F8048008F48018B8F5801F3A
:100850000ED1DFF8B48008F10808D8F8008048EA23
:100860000008DFF8A49009F10809C9F800800DE03C
:10087000DFF8948008F10808D8F8008028EA00081A
:10088000DFF8849009F10809C9F80080D1F80480E4
:1008900008F40018B8F5001F0ED1DFF86C8008F1DD
:1008A0000C08D8F8008048EA0008DFF85C9009F1ED
:1008B0000C09C9F800800DE0DFF84C8008F10C0845
:1008C000D8F8008028EA0008DFF83C9009F10C090C
:1008D000C9F80080521CD1F8008028FA02F8B8F15B
:1008E000000F7FF489AEBDE8F8870000000011100A
:1008F0000010024000080140000C014000100140BF
:100900000014014008000140000401400148006853
:10091000704700000400002003480068034909787C
:100920000844014908607047040000200C000020C2
:1009300010B50848006840F0100006490860032020
:1009400000F0A8F80F2000F007F800F02BF80020C6
:1009500010BD00000020024070B504460E4800782B
:100960004FF47A71B1FBF0F00C490968B1FBF0F576
:10097000284600F0D7FC08B1012070BD102C07D22A
:1009800000222146501E00F047F80548046001E0AF
:100990000120F2E70020F0E70C000020100000200A
:1009A0000800002008B500BF1148806940F0010030
:1009B0000F4988610846806900F00100009000BF7F
:1009C00000BF00BF0846C06940F08050C8610846BB
:1009D000C06900F08050009000BF00BF00BF054913
:1009E000486820F0E06040F00070486000BF08BD3B
:1009F000001002400000014001460846002809DBC3
:100A000000F01F0301229A4043099B0003F1E023F9
:100A1000C3F8002100BF70472DE9F05F80460D4606
:100A20001646002701F022F9074639462A46334682
:100A300001F00700C0F1070ABAF1040F02D94FF024
:100A4000040A01E0C0F1070AD14600F1040ABAF134
:100A5000070F02D24FF0000A01E0A0F1030AD446CA
:100A60004FF0010A0AFA09FAAAF1010A0AEA020A8F
:100A70000AFA0CFA4FF0010B0BFA0CFBABF1010B6D
:100A80000BEA030B4AEA0B042146404601F0F6F854
:100A9000BDE8F09F00BF00F00702064B19684FF653
:100AA000FF031940044B0B4343EA0221014B196039
:100AB00000BF70470CED00E00000FA0570B5044679
:100AC0000D460CB9012070BD5A48006800F00700BF
:100AD000A8420ED25748006820F007002843554925
:100AE00008600846006800F00700A84201D0012015
:100AF000E9E7207800F0020002281DD1207800F0FC
:100B00000400042805D14C48406840F4E0604A499C
:100B10004860207800F00800082805D14648406861
:100B200040F46050444948604348406820F0F00079
:100B3000A168084340494860207800F0010078B37C
:100B40006068012806D13C48006800F4003090B984
:100B50000120B8E76068022806D13748006800F035
:100B6000007040B90120AEE73348006800F0020091
:100B700008B90120A7E73048406820F00300616809
:100B800008432D494860FFF7C1FE064609E0FFF71C
:100B9000BDFE801B41F28831884202D9032092E7D2
:100BA00007E02548406800F00C006168B0EB810F59
:100BB000EDD12048006800F00700A8420ED91D487A
:100BC000006820F0070028431A49086008460068BA
:100BD00000F00700A84201D0012074E7207800F05F
:100BE0000400042807D11448406820F4E060E1685C
:100BF000084311494860207800F00800082808D10F
:100C00000D48406820F46050216940EAC1000A495B
:100C1000486000F03FF808494968C1F30311074AEA
:100C2000515CC8400649086006480068FFF794FE1A
:100C3000002048E70020024000100240CC1C0008C1
:100C400010000020080000200148006870470000E4
:100C50001000002000B5FFF7F7FF04494968C1F311
:100C60000221034A515CC84000BD00000010024050
:100C7000DC1C000800B5FFF7E7FF04494968C1F331
:100C8000C221034A515CC84000BD00000010024070
:100C9000DC1C00082DE9F04F8BB03CA2D2E90131F9
:100CA0001068D268CDE908310A9207903BA3D3E9D6
:100CB0000020D3E9021304AC0BC403924FF00009E7
:100CC000CB46CA460024002002900190009037488D
:100CD000D0F8049009F00C0000284FD0042802D06E
:100CE00008284AD102E0324802904AE007A8C9F336
:100CF0008341445C09F48030C0B32C48C06A00F0E2
:100D00000F0003A911F800B02848C06A00F4803031
:100D100008B32648C06AC0F30310401C0190234862
:100D2000C06AC0F30320801C00900198A0FB0B5008
:100D300006461F490098A1FB00210023A2FB047C6A
:100D400001FB04C102FB03112A4633463846FFF774
:100D50006DFA824603E016486043B0FBFBFA9DF84B
:100D60002900A04206D14FEA5A0A03E0FFE71148E2
:100D700004FB00FACDF808A003E000BF0C48029085
:100D800000BF00BF02980BB0BDE8F08F0000040563
:100D90000607080900000000000D0000010203041E
:100DA00005060708090A0B0C0D0E0F100010024073
:100DB00000127A0000093D00F8B504460CB9012084
:100DC000F8BD207800F00100002878D0FD48406888
:100DD00000F00C0004280CD0FA48406800F00C0029
:100DE000082811D1F748406800F48030B0F5803F02
:100DF0000AD1F448006800F4003000285FD0A068F1
:100E000000285CD10120DBE700BFA068B0F5803F7F
:100E100006D1EC48006840F48030EA49086028E0D8
:100E2000A06858B9E748006820F48030E5490860B8
:100E30000846006820F4802008601AE0A068B0F539
:100E4000A02F0BD1DF48006840F48020DD49086006
:100E50000846006840F4803008600AE0D94800681D
:100E600020F48030D74908600846006820F48020CC
:100E7000086000BFA06888B1FFF748FD054606E09E
:100E8000FFF744FD401B642801D9032098E7CD48B3
:100E9000006800F400300028F2D010E0FFF736FDC3
:100EA000054606E0FFF732FD401B642801D9032008
:100EB00086E7C448006800F400300028F2D12078AA
:100EC00000F00200022857D1BE48406800F00C0034
:100ED00050B1BC48406800F00C00082818D1B9484F
:100EE000406800F4803098B9B648006800F002000D
:100EF00020B16069012801D0012061E7B148006894
:100F000020F0F800A16940EAC100AE49086033E072
:100F10006069E8B10120AC490860FFF7F7FC0546BD
:100F200006E0FFF7F3FC401B022801D9032047E746
:100F3000A448006800F002000028F2D0A148006830
:100F400020F0F800A16940EAC1009E49086013E062
:100F500000209D490860FFF7D9FC054606E0FFF731
:100F6000D5FC401B022801D9032029E795480068D9
:100F700000F002000028F2D1207800F008000828D4
:100F80002DD1E069B8B1012090490860FFF7BEFC9F
:100F9000054606E0FFF7BAFC401B022801D90320F2
:100FA0000EE78848406A00F002000028F2D00120D5
:100FB00000F05AFC13E0002084490860FFF7A6FC0B
:100FC000054606E0FFF7A2FC401B022801D90320DA
:100FD000F6E67C48406A00F002000028F2D1207852
:100FE00000F00400042873D100277648C06900F09F
:100FF000805070B900BF7348C06940F0805071499B
:10100000C8610846C06900F08050009000BF00BF72
:1010100001276F48006800F48070B0B96C48006820
:1010200040F480706A490860FFF770FC054606E0EE
:10103000FFF76CFC401B642801D90320C0E664481C
:10104000006800F480700028F2D000BF20690128F9
:1010500006D15C48006A40F001005A49086227E066
:10106000206958B95748006A20F0010055490862C4
:101070000846006A20F00400086219E0206905288B
:101080000BD15048006A40F004004E4908620846FF
:10109000006A40F0010008620AE04A48006A20F055
:1010A0000100484908620846006A20F0040008620E
:1010B00000BF2069A0B1FFF729FC054609E0FFF752
:1010C00025FC401B41F28831884202D9032077E693
:1010D00022E03C48006A00F002000028EFD012E055
:1010E000FFF714FC054608E0FFF710FC401B41F237
:1010F0008831884201D9032062E63248006A00F054
:1011000002000028F0D1012F05D12E48C06920F03F
:1011100080502C49C86100BFE06AA0B329484068EC
:1011200000F48030B0F5803F0ED12648406800F0D2
:101130000C00082808D12348C06A00F48030B0F5BC
:10114000803F01D101203BE6E06A022850D11D48D2
:10115000006800F0805040B11A48C06A00F0F00109
:10116000606B814201D001202AE600201649886682
:10117000FFF7CCFB054607E0FFF7C8FB401B6428E0
:1011800002D903201CE64DE00E48006800F0006024
:101190000028F1D10B48C06A20F0F000616B0843D1
:1011A0000849C8620846C06A20F47060216B084391
:1011B0000449C862012004498866FFF7A7FB054679
:1011C0000FE0000000100240000042428004424252
:1011D00000700040FFF79AFB401B642801D90320F0
:1011E000EEE54E48006800F000600028F2D019E0FB
:1011F0004A48C06A20F480304849C8620020484903
:101200008866FFF783FB054606E0FFF77FFB401B80
:10121000642801D90320D3E54048006800F000604D
:101220000028F2D1206AE0B33C48406800F00C008E
:1012300008285ED0206A022846D100203849086676
:10124000FFF764FB054606E0FFF760FB401B022842
:1012500001D90320B4E53148006800F0007000288F
:10126000F2D1606AB0F5803F0DD12C48C06A616848
:1012700008432A49C8620846C06A20F00F00E168A6
:1012800008432649C862D4E909010843234949684B
:1012900021F474110843214948600120204908665F
:1012A00000E038E0FFF732FB054606E0FFF72EFBD3
:1012B000401B022801D9032082E51848006800F08D
:1012C00000700028F2D026E0002015490866FFF7DC
:1012D0001DFB054606E0FFF719FB401B022801D95C
:1012E00003206DE50D48006800F000700028F2D181
:1012F00011E0206A012800D162E50848466806F43A
:101300008031606A814204D106F47011A06A814282
:1013100001D0012054E5002052E5000000100240F9
:101320000000424270B504462546681EB0F1807F39
:1013300001D301200FE0681E4FF0E02148610F212A
:101340004FF0FF3000F09AFC00204FF0E021886160
:1013500007200861002070BD704770472DE9F84FE5
:101360000446206805682068C668206847694FF011
:101370000009CA4605F00F09B9F1000F0AD105F0BE
:10138000200038B106F0200020B1204600F0EAFA33
:10139000BDE8F88FB9F1000F71D007F0010018B95E
:1013A00006F4907000286AD005F0010030B106F410
:1013B000807018B1206C40F00100206405F004003A
:1013C00030B107F0010018B1206C40F00200206439
:1013D00005F0020030B107F0010018B1206C40F0B8
:1013E0000400206405F0080048B106F0200010B9A0
:1013F00007F0010018B1206C40F008002064206C58
:1014000068B305F0200028B106F0200010B1204696
:1014100000F0A8FA20684069C0F3801A206C00F040
:10142000080010B9BAF1000F22D0204600F06FFA80
:101430002068406900F04000B0B12068406920F0A9
:10144000400021684861A06B50B15648A16B4863C9
:10145000A06BFEF7F7FF10B1A06B416B88470CE063
:101460002046FFF77AFF08E02046FFF776FF04E00A
:101470002046FFF772FF0020206489E7FFE7206B1A
:10148000012878D105F01000002874D006F0100073
:10149000002870D000BF00200090206800680090F5
:1014A00020684068009000BF00BF2068406900F0DD
:1014B0004000C0B3A06B006840681FFA80F8B8F124
:1014C000000F2FD0A08D40452CDDA4F82E80A06BFE
:1014D000806920281FD02068C06820F480702168AF
:1014E000C8602068406920F00100216848612068D8
:1014F000406920F0400021684861202084F83E00C7
:10150000002020632068C06820F010002168C860B7
:10151000A06BFEF76CFFA08DE28D801A81B2204691
:10152000FFF71AFF34E7FFE7A08DE18D401A1FFA9D
:1015300080F8E08DE8B1B8F1000F1AD02068C068DB
:1015400020F490702168C8602068406920F0010094
:1015500021684861202084F83E0000202063206834
:10156000C06820F010002168C86041462046FFF79F
:10157000F3FE0DE7FFE705F0800030B106F08000D4
:1015800018B1204600F001FB02E705F0400030B141
:1015900006F0400018B1204600F0D4F9F8E600BF8C
:1015A000F6E60000FB18000810B504460CB901204F
:1015B00010BDA06900B100E000BF94F83D0028B95B
:1015C000002084F83C00204600F028F8242084F80D
:1015D0003D002068C06820F400502168C8602046A3
:1015E00000F032FA2068006920F490402168086118
:1015F0002068406920F02A00216848612068C0689E
:1016000040F400502168C86000202064202084F845
:101610003D0084F83E000020CAE7000010B586B007
:101620000446002002900390049005901E49206813
:10163000884236D100BF1D48806940F480401B4974
:1016400088610846806900F48040019000BF00BFB7
:1016500000BF0846806940F0040088610846806940
:1016600000F00400019000BF00BF48150290022066
:1016700003900320059002A90D48FEF7B7FF4FF431
:101680008060029000200390049002A90848FEF7B1
:10169000ADFF002211462520FFF7BEF92520FFF7F8
:1016A000ABF906B010BD0000003801400010024048
:1016B0000008014070B504460D46164694F83E00F9
:1016C000202816D105B10EB9012070BD00BF94F8D5
:1016D0003C00012801D10220F7E7012084F83C00FA
:1016E00000BF0020206332462946204600F02AFA37
:1016F000EBE70220E9E7000010B50446084800784F
:10170000401C074908704FF0FF330122054800F0E4
:101710000BF8012202490348FFF7CCFF10BD00007F
:1017200000000020140000202DE9F84F04460E466A
:10173000174699464FF0000A94F83D0020285AD1E8
:1017400006B117B90120BDE8F88F00BF94F83C003E
:10175000012801D10220F6E7012084F83C0000BFF7
:1017600000202064212084F83D00FFF7CFF8824656
:10177000A784E784A068B0F5805F04D1206910B920
:101780000025B04602E035464FF0000800BF0020BB
:1017900084F83C0000BF1BE0534600228021204615
:1017A000CDF8009000F021FA08B10320CBE745B94D
:1017B000B8F80000C0F308002168486008F102088A
:1017C00003E02878216848606D1CE08C401EE084AE
:1017D000E08C0028E0D15346002240212046CDF87D
:1017E000009000F002FA08B10320ACE7202084F852
:1017F0003D000020A7E70220A5E7704700BFFEE7F5
:1018000008B500BF0648806940F0040004498861BB
:101810000846806900F00400009000BF00BF08BDCA
:101820000010024010B50B480B4908604FF41650E9
:101830004860002108488160C16001610C2141615C
:1018400000218161C161FFF7AFFE08B1FEF7CCFD59
:1018500010BD0000003801401400002000BFFEE76A
:1018600000BFFEE77047000008B508490968C908CD
:101870004FF47A72B1FBF2F14143009100BF00BF17
:1018800000994A1E00920029F9D108BD10000020DD
:10189000704710B5FFF740F810BD000000B593B0D9
:1018A000382105A8FEF739FD14216846FEF735FDFD
:1018B0000220059001200A9010200B9000200D902E
:1018C000109005A8FFF778FA08B1FEF78DFD0F20FC
:1018D000009000200190029003900490002168463F
:1018E000FFF7ECF808B1FEF77FFD0120014908671A
:1018F00013B000BD00004242704770B505466C6AE7
:101900000020E085E0842046FFF727FD70BD0168D8
:10191000C96821F490710268D1600168496921F0B9
:10192000010102685161016B012905D10168C96893
:1019300021F010010268D160202180F83E100021C2
:101940000163704710B504462068C06820F040006D
:101950002168C860202084F83D002046FFF74DFF35
:10196000002010BDF8B5044694F83E00222869D145
:10197000A068B0F5805F0CD1206950B90025A66A37
:1019800020684068C0F308003080A06A801CA06214
:1019900015E0A56A0026A068B0F5805F03D0A068B6
:1019A00028B9206918B920684068287004E02068C8
:1019B000406800F07F002870A06A401CA062E08DA3
:1019C000401E80B2E085A8BB2068C06820F02000DF
:1019D0002168C8602068C06820F480702168C860F1
:1019E0002068406920F0010021684861202084F8C7
:1019F0003E00206B01281ED1002020632068C068B3
:101A000020F010002168C8602068006800F0100015
:101A100010280AD100BF00200090206800680090C4
:101A200020684068009000BF00BFA18D2046FFF7EE
:101A300093FC03E004E02046FFF75EFE0020F8BDC3
:101A40000020FCE70220FAE770B504462168096926
:101A500021F44051E2681143226811612269A168B2
:101A60001143626941EA02052168C96841F20C62CA
:101A7000914329432268D1602168496921F440716A
:101A8000A2691143226851612D4A2168914202D115
:101A9000FFF7F0F801E0FFF7DDF800EBC00101EB24
:101AA000001162689200B1FBF2F100EBC00202EBA0
:101AB000001263689B00B2FBF3F26423B2FBF3F203
:101AC00002EBC20303EB0212A1EB8201322202EB12
:101AD00001116422B1FBF2F101F0F00100EBC00250
:101AE00002EB001263689B00B2FBF3F26423B2FBCB
:101AF000F3F201EB021200EBC00101EB001163688D
:101B00009B00B1FBF3F100EBC00303EB001366682D
:101B1000B600B3FBF6F36426B3FBF6F303EBC306A0
:101B200006EB0313A1EB8301322303EB01116423C2
:101B3000B1FBF3F101F00F0111442268916070BD17
:101B40000038014010B5034699629A85DA85002075
:101B50001864222083F83E0000BF002083F83C0078
:101B600000BF1868C06840F480701C68E0601868A6
:101B7000406940F001001C6860611868C06840F06E
:101B800020001C68E060002010BD014691F83D0077
:101B9000212828D18868B0F5805F0BD1086948B941
:101BA0000A6A1088C0F308000B685860086A801C35
:101BB000086205E00B6A581C086218780B685860C8
:101BC000C88C401E80B2C88458B90868C06820F02C
:101BD00080000B68D8600868C06840F040000B685F
:101BE000D860002070470220FCE72DE9F041044650
:101BF0000D4617469846069E21E0701CF8B12EB19E
:101C0000FEF784FEA0EB0800B04218D92068C06837
:101C100020F4D0702168C8602068406920F001007D
:101C200021684861202084F83D0084F83E0000BF10
:101C3000002084F83C0000BF0320BDE8F08120684C
:101C400000682840A84201D1012000E00020B842ED
:101C5000D3D00020F1E7000010B50248FFF77EFB6B
:101C600010BD00001400002000BFFEE7024800681D
:101C7000C0F30220704700000CED00E010B5002812
:101C800004DB0A07130E054A135406E00A07140E74
:101C9000034A00F00F031B1FD45410BD00E400E002
:101CA00018ED00E0FEF744FEFFF7F8FDFFF7A8FD92
:101CB000FFF7B8FD012203490348FFF7FBFC00BF13
:101CC000FEE70000000000201400002000000000DB
:101CD00000000000010203040607080900000000DC
:101CE00001020304041D000800000020140000008D
:101CF0008C010008181D000814000020A406000034
:101D0000A8010008410000000000000010000000D1
:081D1000010000000024F400B2
:04000005080001519D
:00000001FF
