:020000040800F2
:1000000070060020ED010008CD1100084D11000818
:10001000C9110008E303000867120008000000008F
:10002000000000000000000000000000FD110008BA
:10003000E703000800000000D1110008FF110008CC
:10004000070200080702000807020008070200086C
:10005000070200080702000807020008070200085C
:10006000070200080702000807020008070200084C
:10007000070200080702000807020008070200083C
:10008000070200080702000807020008070200082C
:10009000070200080702000807020008070200081C
:1000A000070200080702000807020008070200080C
:1000B00007020008070200080702000807020008FC
:1000C00007020008070200080702000807020008EC
:1000D00007020008070200080702000807020008DC
:1000E00007020008070200080702000800000000DD
:1000F0000000000000000000000000000000000000
:1001000000000000000000000702000807020008CD
:10011000070200080702000807020008070200089B
:10012000070200080702000807020008070200088B
:10013000070200080702000807020008070200087B
:10014000070200080702000807020008070200086B
:1001500000F002F800F03AF80AA090E8000C82449F
:100160008344AAF10107DA4501D100F02FF8AFF27C
:10017000090EBAE80F0013F0010F18BFFB1A43F085
:10018000010318471C1200003C120000103A24BF63
:1001900078C878C1FAD8520724BF30C830C144BFEC
:1001A00004680C607047000000230024002500262E
:1001B000103A28BF78C1FBD8520728BF30C148BFCA
:1001C0000B6070471FB51FBD10B510BD00F0CFF814
:1001D0001146FFF7F7FF01F065F800F0EDF803B402
:1001E000FFF7F2FF03BC00F0F5F800000948804774
:1001F00009480047FEE7FEE7FEE7FEE7FEE7FEE709
:10020000FEE7FEE7FEE7FEE704480549054A064B20
:1002100070470000651200085101000870000020BE
:1002200070060020700200207002002053EA020CC9
:1002300000F069802DE9F04B4FF00006002B1FBF46
:10024000B3FA83F503FA05F424FA05F65E4012BF0B
:100250001643B2FA82F502FA05F4C5F120051EBF75
:1002600022FA05FC44EA0C04203556EA044C4FEA15
:10027000144418BF641C4FF000084FF0000990426E
:1002800071EB030C39D3002919BFB1FA81F701FAD8
:1002900007F6B0FA80F700FA07F6C7F120071EBF8D
:1002A00020FA07FC46EA0C062037B6FBF4FCA7EB65
:1002B0000507103F07F01F0BCBF120060CFA0BFBD4
:1002C0002CFA06F644BFB3460026202FA4BF5E4694
:1002D0004FF0000B5BEA060C08BF4FF0010B19EB67
:1002E0000B09ABFB027C48EB0608C01B06FB02CCEB
:1002F0000BFB03CC71EB0C01C1E70B4602464146F8
:100300004846BDE8F08B13B54FF000004FF00001F8
:10031000AFF30080BDE81C4070474FF0000200B50D
:10032000134694469646203922BFA0E80C50A0E818
:100330000C50B1F12001BFF4F7AF090728BFA0E8C6
:100340000C5048BF0CC05DF804EB890028BF40F892
:10035000042B08BF704748BF20F8022B11F0804FD4
:1003600018BF00F8012B70477047704770477546FB
:1003700000F02CF8AE4605006946534620F0070011
:10038000854618B020B5FFF73FFFBDE820404FF08D
:1003900000064FF000074FF000084FF0000B21F06F
:1003A0000701AC46ACE8C009ACE8C009ACE8C0093C
:1003B000ACE8C0098D46704710B50446AFF3008025
:1003C0002046BDE81040FFF70ABF00000048704714
:1003D0001000002001491820ABBEFEE726000200F5
:1003E000704700BFFEE7704772B608E04FF48071B7
:1003F000034800F0ABF94FF47A7000F003F8F5E72A
:100400000014014070B5044600F0B0F906462546D8
:10041000681C10B104480078054400BF00F0A6F93C
:10042000801BA842FAD370BD080000202DE9F847D0
:100430000346002294466EE14FF0010808FA02F4E8
:10044000D1F8008008EA0400A0427DD1DFF8DCA2E8
:10045000D1F80480A8EB0A09D0453AD014DCB8F1F1
:10046000030F50D009DCB8F1000F31D0B8F1010F03
:100470001CD0B8F1020F49D120E0B8F1110F18D00B
:10048000B8F1120F42D11EE0B9F5881F25D006DC65
:10049000B9F5803F20D0B9F5801F37D11AE0B9F502
:1004A000001F18D0B9F5041F30D117E0D1F80CC0E7
:1004B0002DE0D1F80C8008F1040C28E0D1F80C8074
:1004C00008F1080C23E0D1F80C8008F10C0C1EE0B8
:1004D00000BF00BF00BF00BF00BF00BFD1F8088051
:1004E000B8F1000F02D14FF0040C0BE0D1F80880F6
:1004F000B8F1010F03D14FF0080C1C6102E04FF07E
:10050000080C5C6103E04FF0000C00E000BF00BF8E
:10051000FF2801D8984601E003F104084646FF2869
:1005200002D84FEA820803E0A2F108084FEA8808DF
:100530004746D6F800804FF00F0909FA07F928EA74
:1005400009080CFA07F900E088E048EA0908C6F84B
:100550000080D1F8048008F08058B8F1805F7DD128
:1005600000BFDFF8CC81D8F8188048F00108DFF828
:10057000C091C9F81880C846D8F8188008F001085A
:10058000CDF8008000BF00BF4FEAB9384FEA9209AA
:1005900058F829504FEA82784FEA18794FF00F083F
:1005A00008FA09F825EA0805DFF88881434502D1F1
:1005B0004FF0000816E0DFF88081434502D14FF08C
:1005C00001080FE0DFF87481434502D14FF00208C3
:1005D00008E0DFF86C81434502D14FF0030801E0E9
:1005E0004FF004084FEA82794FEA197908FA09F8BE
:1005F00048EA0505DFF84C814FEA920948F829508E
:10060000D1F8048008F48038B8F5803F0AD1DFF8CB
:100610003881D8F8008048EA0008DFF82C91C9F842
:10062000008009E0DFF82081D8F8008028EA00087F
:10063000DFF81491C9F80080D1F8048008F400387C
:10064000B8F5003F10D1DFF8008108F10408D8F8B0
:10065000008048EA0008DFF8F09000E05AE009F175
:100660000409C9F800800DE0DFF8DC8008F1040817
:10067000D8F8008028EA0008DFF8CC9009F10409D6
:10068000C9F80080D1F8048008F48018B8F5801FFC
:100690000ED1DFF8B48008F10808D8F8008048EAE5
:1006A0000008DFF8A49009F10809C9F800800DE0FE
:1006B000DFF8948008F10808D8F8008028EA0008DC
:1006C000DFF8849009F10809C9F80080D1F80480A6
:1006D00008F40018B8F5001F0ED1DFF86C8008F19F
:1006E0000C08D8F8008048EA0008DFF85C9009F1AF
:1006F0000C09C9F800800DE0DFF84C8008F10C0807
:10070000D8F8008028EA0008DFF83C9009F10C09CD
:10071000C9F80080521CD1F8008028FA02F8B8F11C
:10072000000F7FF489AEBDE8F887000000001110CB
:100730000010024000080140000C01400010014080
:1007400000140140080001400004014010B5C268D7
:1007500021EA020302EA010443EA0443036110BDF3
:100760000AB1016101E00B040361704701480068B0
:100770007047000000000020034800680349097822
:10078000084401490860704700000020080000206C
:1007900010B50848006840F01000064908600320C2
:1007A00000F098F80F2000F007F800F02BF8002078
:1007B00010BD00000020024070B504460E480078CD
:1007C0004FF47A71B1FBF0F00C490968B1FBF0F518
:1007D000284600F0A1FC08B1012070BD102C07D202
:1007E00000222146501E00F037F80548046001E061
:1007F0000120F2E70020F0E7080000200C000020B4
:100800000400002008B500BF1148806940F00100D5
:100810000F4988610846806900F00100009000BF20
:1008200000BF00BF0846C06940F08050C86108465C
:10083000C06900F08050009000BF00BF00BF0549B4
:10084000486820F0E06040F00070486000BF08BDDC
:1008500000100240000001402DE9F05F80460D4687
:100860001646002700F002FD074639462A46334661
:1008700001F00700C0F1070ABAF1040F02D94FF0E6
:10088000040A01E0C0F1070AD14600F1040ABAF1F6
:10089000070F02D24FF0000A01E0A0F1030AD4468C
:1008A0004FF0010A0AFA09FAAAF1010A0AEA020A51
:1008B0000AFA0CFA4FF0010B0BFA0CFBABF1010B2F
:1008C0000BEA030B4AEA0B042146404600F0D6FC33
:1008D000BDE8F09F00BF00F00702064B19684FF615
:1008E000FF031940044B0B4343EA0221014B1960FB
:1008F00000BF70470CED00E00000FA0570B504463B
:100900000D460CB9012070BD5A48006800F0070080
:10091000A8420ED25748006820F0070028435549E6
:1009200008600846006800F00700A84201D00120D6
:10093000E9E7207800F0020002281DD1207800F0BD
:100940000400042805D14C48406840F4E0604A495E
:100950004860207800F00800082805D14648406823
:1009600040F46050444948604348406820F0F0003B
:10097000A168084340494860207800F0010078B33E
:100980006068012806D13C48006800F4003090B946
:100990000120B8E76068022806D13748006800F0F7
:1009A000007040B90120AEE73348006800F0020053
:1009B00008B90120A7E73048406820F003006168CB
:1009C00008432D494860FFF7D1FE064609E0FFF7CE
:1009D000CDFE801B41F28831884202D9032092E784
:1009E00007E02548406800F00C006168B0EB810F1B
:1009F000EDD12048006800F00700A8420ED91D483C
:100A0000006820F0070028431A490860084600687B
:100A100000F00700A84201D0012074E7207800F020
:100A20000400042807D11448406820F4E060E1681D
:100A3000084311494860207800F00800082808D1D0
:100A40000D48406820F46050216940EAC1000A491D
:100A5000486000F019F808494968C1F30311074AD2
:100A6000515CC8400649086006480068FFF7A4FECC
:100A7000002048E7002002400010024088130008D0
:100A80000C000020040000202DE9F04F8BB03CA2A8
:100A9000D2E901311068D268CDE908310A92079095
:100AA0003BA3D3E90020D3E9021304AC0BC40392A7
:100AB0004FF00009CB46CA46002400200290019066
:100AC00000903748D0F8049009F00C0000284FD06F
:100AD000042802D008284AD102E0324802904AE0B5
:100AE00007A8C9F38341445C09F48030C0B32C48A3
:100AF000C06A00F00F0003A911F800B02848C06ACE
:100B000000F4803008B32648C06AC0F30310401CCC
:100B100001902348C06AC0F30320801C0090019814
:100B2000A0FB0B5006461F490098A1FB00210023A3
:100B3000A2FB047C01FB04C102FB03112A463346DD
:100B40003846FFF773FB824603E016486043B0FB6C
:100B5000FBFA9DF82900A04206D14FEA5A0A03E0A9
:100B6000FFE7114804FB00FACDF808A003E000BF3E
:100B70000C48029000BF00BF02980BB0BDE8F08F98
:100B8000000004050607080900000000000D000031
:100B90000102030405060708090A0B0C0D0E0F10CD
:100BA0000010024000127A0000093D00F8B504462A
:100BB0000CB90120F8BD207800F00100002878D0A1
:100BC000FD48406800F00C0004280CD0FA4840684A
:100BD00000F00C00082811D1F748406800F480307C
:100BE000B0F5803F0AD1F448006800F400300028D6
:100BF0005FD0A06800285CD10120DBE700BFA068BF
:100C0000B0F5803F06D1EC48006840F48030EA49F6
:100C1000086028E0A06858B9E748006820F48030F0
:100C2000E54908600846006820F4802008601AE062
:100C3000A068B0F5A02F0BD1DF48006840F48020F9
:100C4000DD4908600846006840F4803008600AE02A
:100C5000D948006820F48030D74908600846006809
:100C600020F48020086000BFA06888B1FFF77EFDF7
:100C7000054606E0FFF77AFD401B642801D90320F2
:100C800098E7CD48006800F400300028F2D010E06A
:100C9000FFF76CFD054606E0FFF768FD401B642882
:100CA00001D9032086E7C448006800F4003000281A
:100CB000F2D1207800F00200022857D1BE484068E7
:100CC00000F00C0050B1BC48406800F00C0008284F
:100CD00018D1B948406800F4803098B9B648006827
:100CE00000F0020020B16069012801D0012061E715
:100CF000B148006820F0F800A16940EAC100AE499F
:100D0000086033E06069E8B10120AC490860FFF792
:100D10002DFD054606E0FFF729FD401B022801D9FD
:100D2000032047E7A448006800F002000028F2D042
:100D3000A148006820F0F800A16940EAC1009E497E
:100D4000086013E000209D490860FFF70FFD05468D
:100D500006E0FFF70BFD401B022801D9032029E71D
:100D60009548006800F002000028F2D1207800F0D9
:100D7000080008282DD1E069B8B101209049086029
:100D8000FFF7F4FC054606E0FFF7F0FC401B0228E5
:100D900001D903200EE78848406A00F002000028CD
:100DA000F2D0012000F016FA13E000208449086018
:100DB000FFF7DCFC054606E0FFF7D8FC401B0228E5
:100DC00001D90320F6E67C48406A00F002000028C2
:100DD000F2D1207800F00400042873D1002776486F
:100DE000C06900F0805070B900BF7348C06940F01E
:100DF00080507149C8610846C06900F08050009079
:100E000000BF00BF01276F48006800F48070B0B9D0
:100E10006C48006840F480706A490860FFF7A6FCDF
:100E2000054606E0FFF7A2FC401B642801D9032019
:100E3000C0E66448006800F480700028F2D000BF6B
:100E40002069012806D15C48006A40F001005A4937
:100E5000086227E0206958B95748006A20F001006D
:100E6000554908620846006A20F00400086219E04B
:100E7000206905280BD15048006A40F004004E4913
:100E800008620846006A40F0010008620AE04A4829
:100E9000006A20F00100484908620846006A20F014
:100EA0000400086200BF2069A0B1FFF75FFC05469F
:100EB00009E0FFF75BFC401B41F28831884202D910
:100EC000032077E622E03C48006A00F00200002898
:100ED000EFD012E0FFF74AFC054608E0FFF746FCBA
:100EE000401B41F28831884201D9032062E6324832
:100EF000006A00F002000028F0D1012F05D12E4831
:100F0000C06920F080502C49C86100BFE06AA0B3DE
:100F10002948406800F48030B0F5803F0ED1264863
:100F2000406800F00C00082808D12348C06A00F48B
:100F30008030B0F5803F01D101203BE6E06A022815
:100F400050D11D48006800F0805040B11A48C06A76
:100F500000F0F001606B814201D001202AE6002000
:100F600016498866FFF702FC054607E0FFF7FEFB1F
:100F7000401B642802D903201CE64DE00E4800689F
:100F800000F000600028F1D10B48C06A20F0F000AA
:100F9000616B08430849C8620846C06A20F4706063
:100FA000216B08430449C862012004498866FFF7A1
:100FB000DDFB05460FE00000001002400000424249
:100FC0008004424200700040FFF7D0FB401B6428C1
:100FD00001D90320EEE54E48006800F000600028CB
:100FE000F2D019E04A48C06A20F480304849C8620B
:100FF000002048498866FFF7B9FB054606E0FFF781
:10100000B5FB401B642801D90320D3E540480068A4
:1010100000F000600028F2D1206AE0B33C4840684C
:1010200000F00C0008285ED0206A022846D100207B
:1010300038490866FFF79AFB054606E0FFF796FB7E
:10104000401B022801D90320B4E53148006800F0B4
:1010500000700028F2D1606AB0F5803F0DD12C48B5
:10106000C06A616808432A49C8620846C06A20F01D
:101070000F00E16808432649C862D4E90901084322
:101080002349496821F4741108432149486001202B
:101090002049086600E038E0FFF768FB054606E0F7
:1010A000FFF764FB401B022801D9032082E51848A2
:1010B000006800F000700028F2D026E000201549FA
:1010C0000866FFF753FB054606E0FFF74FFB401BA2
:1010D000022801D903206DE50D48006800F000707A
:1010E0000028F2D111E0206A012800D162E5084809
:1010F000466806F48031606A814204D106F47011BA
:10110000A06A814201D0012054E5002052E5000090
:10111000001002400000424270B504462546681E99
:10112000B0F1807F01D301200FE0681E4FF0E02175
:1011300048610F214FF0FF3000F0A0F800204FF081
:10114000E021886107200861002070BD00BFFEE734
:1011500000B585B00020019002900390049000BF7C
:101160001748806940F02000154988610846806969
:1011700000F02000009000BF00BF00BF084680695B
:1011800040F0040088610846806900F00400009087
:1011900000BF00BF00224FF470610A48FFF7E0FA79
:1011A0004FF4706001900120029000200390022013
:1011B000049001A90348FFF739F905B000BD00000C
:1011C000001002400014014000BFFEE700BFFEE730
:1011D0007047000008B508490968C9084FF47A72D9
:1011E000B1FBF2F14143009100BF00BF00994A1EDC
:1011F00000920029F9D108BD0C000020704710B5FD
:10120000FFF7BAFA10BD000000B593B0382105A869
:10121000FFF783F814216846FFF77FF80220059056
:1012200001200A9010200B9000200D90109005A82E
:10123000FFF7BCFC08B1FFF7D7F80F2000900020A3
:10124000019002900390049000216846FFF756FB3E
:1012500008B1FFF7C9F801200149086713B000BDC4
:1012600000004242704700BFFEE7000002480068ED
:10127000C0F30220704700000CED00E010B500281C
:1012800004DB0A07130E054A135406E00A07140E7E
:10129000034A00F00F031B1FD45410BD00E400E00C
:1012A00018ED00E01CB5FFF773FAFFF7ADFFFFF78D
:1012B0004FFF314903C9CDE900015CE0002458E04B
:1012C000204604EBD0714910A4EB4101002906DD52
:1012D000BDF8001001222948FFF742FA05E0BDF8E9
:1012E000001000222548FFF73BFAE11704EB91714B
:1012F0008910A4EB8101012906DDBDF8021001224D
:101300001E48FFF72DFA05E0BDF8021000221B4829
:10131000FFF726FAE11704EB5171C910A4EBC101E4
:10132000032906DDBDF8041001221448FFF718FA5E
:1013300005E0BDF8041000221048FFF711FAE1178C
:1013400004EB11710911A4EB0111072906DDBDF8A9
:10135000061001220948FFF703FA05E0BDF8061060
:1013600000220648FFF7FCF94FF4FA70FFF74AF83D
:10137000641C112CA4DBA1E78013000800140140B9
:10138000000100020004000800000000000000004E
:10139000010203040607080900000000010203041B
:1013A000C013000800000020100000008C0100089D
:1013B000D01300081000002060060000A8010008FB
:1013C0000000000010000000010000000024F400F4
:04000005080001519D
:00000001FF
