:020000040800F2
:10000000A005002069010008BD290008212700087B
:10001000B92900080D090008C52F000800000000DC
:10002000000000000000000000000000E5290008BA
:100030001109000800000000BF290008E729000896
:100040008301000883010008830100088301000880
:100050008301000883010008830100088301000870
:100060008301000883010008830100088301000860
:100070008301000883010008830100088301000850
:100080008301000883010008830100088301000840
:100090008301000883010008830100082709000884
:1000A0008301000883010008830100088301000820
:1000B00083010008F52A0008830100088301000875
:1000C0008301000883010008830100088301000800
:1000D00083010008830100088301000883010008F0
:1000E00013090008830100088301000800000000D4
:1000F0000000000000000000000000000000000000
:1001000000000000000000008301000883010008D7
:1001100083010008830100088301000883010008AF
:10012000830100088301000883010008830100089F
:10013000830100088301000883010008830100088F
:10014000830100088301000883010008830100087F
:10015000DFF810D000F00EFB00480047D133000854
:10016000AFF30080A00500200648804706480047FE
:10017000FEE7FEE7FEE7FEE7FEE7FEE7FEE7FEE757
:10018000FEE7FEE7912A0008510100082DE9F05F23
:100190000546002092469B468846064681464024F6
:1001A0001BE0284641464746224600F020F85346C9
:1001B0005A46C01A914110D311461846224600F003
:1001C0002CFA2D1A67EB01084F4622460120002128
:1001D00000F023FA17EB00094E41201EA4F10104A0
:1001E000DFDC484631462A464346BDE8F09F202AD8
:1001F00004DB203A21FA02F00021704721FA02F3D1
:10020000D040C2F120029140084319467047D2B253
:1002100001E000F8012B491EFBD270470022F6E7EF
:1002200010B513460A4604461946FFF7F0FF20466C
:1002300010BD2DE9FE4F804681EA0300C00F0C4639
:10024000009021F0004123F00045B8EB0200A941E5
:1002500005D24046214690461C460B46024623F0F6
:100260000040104347D0270DC7F30A00C3F30A51DB
:100270000290401A019040286BDAC3F3130040F457
:10028000801B0098924620B10023D2EB030A63EB57
:100290000B0B01985946C0F14002504600F0BDF9E1
:1002A00006460D4650465946019A00F0C5F910EB36
:1002B00008006141002487EA115284EAE7731A4377
:1002C00040D0009A62B3019A012A4FEA075215DC26
:1002D000001B61EB02014FF0004202EA0752CDE938
:1002E0000042001C41F5801132462B4600F0C5F952
:1002F00003B0BDE8F08F40462146F9E7001B61EBF3
:100300000201001C41F5801300185B412018A2F582
:10031000001747EB030140EAD570B6196D4111E0B3
:100320006D084FEA360645EAC0754FEA0752001BD2
:1003300061EB0201001C41F5801149084FEA3000D1
:100340000019514132462B4603B0BDE8F04F00F092
:1003500085B90098012240000023D0EB020263EB34
:10036000E073009821464FEAE074B8EB000061EBBF
:100370000401E9E783F000435BE781F0004158E7BF
:100380002DE9FE4F81EA030404F0004421F000410E
:1003900000944FF0000B23F0004350EA01045ED0BC
:1003A00052EA03045BD0C3F30A54C1F30A552C4448
:1003B000A4F2F3340194A0FB0254C1F3130141F4FD
:1003C0008011C3F3130343F4801301FB024400FBC9
:1003D000034E840A970A44EA815447EA8357A4FBF0
:1003E000076802958D0A05FB07854FEA932C04FBED
:1003F0000C542705029D4FEA065847EA1637B5EB1D
:1004000008056EEB070C870E920E47EA811742EA49
:100410008312A7FB0201B6EB0B0164EB00042B0D6A
:1004200043EA0C335E1844EB1C50DA465146E7FBB6
:100430000201C5F313044FEA0B3343EA14534FEAA6
:100440000432019C43EA0603A4F10C040294009CCC
:10045000CDE900B400F011F903B0BDE8F08F002041
:100460000146F9E72DE9F04D81EA030404F0004B61
:1004700021F0004514464FF0000A23F0004150EAF5
:10048000050220D054EA01021DD0C5F30A570246E6
:10049000C5F31303C1F31300C1F30A5640F48015EA
:1004A00043F48013A7EB0608101BD64608F2FD386C
:1004B00073EB050002D308F1010801E092185B41DB
:1004C000B8F1000F03DA00200146BDE8F08D0020EE
:1004D0004FF48011064684460EE0171B73EB0507A8
:1004E00005D3121B63EB050306434CEA010C4908D4
:1004F0004FEA300092185B4150EA0107EDD152EA11
:10050000030012D082EA040083EA0501084305D003
:10051000101BAB4106D20122002306E000224FF05F
:10052000004302E06FF0010253101AEB06004CEB9F
:10053000085110EB0A0041EB0B01BDE8F04D00F053
:100540008DB80EB5C10F80EAE0700844CA070021DB
:1005500040F233438DE80E000A460B4600F08DF85A
:1005600003B000BD0EB540F2334102910021CDE948
:1005700000110A460B4600F080F803B000BD70B5CC
:10058000C1F30A5201F000450024C1F3130140F207
:10059000FF3341F480119A4201DA002070BD40F22D
:1005A00033439A42A2F2334203DC5242FFF71FFE6A
:1005B00000E090402C43F1D0404270BDC1F30A529C
:1005C00010B5C1F3130140F2FF3341F480119A4298
:1005D00001DA002010BD40F233439A42A2F23342C6
:1005E00003DC5242FFF703FE10BD904010BD30B552
:1005F0000B46014600202022012409E021FA02F5E1
:100600009D4205D303FA02F5491B04FA02F528447A
:10061000151EA2F10102F1DC30BD202A04DB203AD4
:1006200000FA02F1002070479140C2F1200320FA45
:1006300003F3194390407047202A06DBCB17203A7A
:1006400041FA02F043EAE07306E041FA02F3D040D7
:10065000C2F12002914008431946704710B5141E9C
:1006600073F1000408DA401C41F1000192185B416B
:100670001A4301D120F0010010BD2DE9F04D924642
:100680009B4611B1B1FA81F202E0B0FA80F2203259
:100690009046FFF7C2FF04460F4640EA0A0041EACF
:1006A0000B0153465A46084313D0114653EA010042
:1006B00019D0C8F140025046FFF799FD05460E4695
:1006C000504659464246FFF7A8FF084305D001208F
:1006D00004E020463946BDE8F08D0020054346EA97
:1006E000E0762C4337430A986305E40AA0EB080040
:1006F0000022FD0A44EA47540A3002D50020014690
:10070000E9E7010510196941DDE90845001969416A
:10071000BDE8F04DA2E770B521F0004303430CD0D3
:10072000C1F30A550024D5EB040564EB0403D61786
:10073000AD1AB34102DB0020014670BD201841EB29
:10074000025170BD30B5041E71F1000404DB4FF09E
:100750000044404264EB0101141E73F1000405DB08
:100760001C464FF00043524263EB0403994208BF1A
:10077000904230BD064C074D06E0E06840F00103B2
:1007800094E8070098471034AC42F6D3FFF7E4FC36
:10079000A8400008C84000082DE9F04D00231A4683
:1007A0001B1A8A4103DB00200146BDE8F08DC1F32E
:1007B0000A52C1F3130141F480154FF0000BD10729
:1007C00002D100186D41521E0027044640F2FF116D
:1007D000384601EB620A3E468046024600204FF44E
:1007E0008011FFF704FDC2197141BB1846EB0100EF
:1007F000B4EB030C75EB000C04D3E41A65EB0005B5
:1008000017460E46241908F101006D418046342830
:10081000E3DDF91946EB0600091BA84103D24FF0AE
:10082000FF32134601E0002213461BEB070046EBA4
:100830000A51BDE8F04DFFF711BF70B504462068BE
:10084000816811F0010F1FD0816821F001018160E2
:1008500000F0FEFC05462068806810F0010F13D000
:1008600000F0F6FC401B022809D9A06A40F01000F5
:10087000A062E06A40F00100E062012070BD2068E3
:10088000806810F0010FEBD1002070BDF8B5044670
:10089000002600962068816811F0010F2FD1816831
:1008A00041F001018160174817490068B0FBF1F081
:1008B0000090009828B10098401E009000980028F1
:1008C000F9D100F0C5FC05462068806810F0010FE2
:1008D00015D100F0BDFC401B02280BD9A06A40F0E6
:1008E0001000A062E06A40F00100E06284F8246039
:1008F0000120F8BD2068806810F0010FE9D00020C9
:10090000F8BD00001800002040420F0000BFFEE7C5
:10091000704710B54FF4806000F08AFB4FF4006020
:1009200000F086FB10BD10B54FF4807000F080FB26
:100930004FF4007000F07CFB10BD7047F8B5044622
:100940000026009694F82400012809D0012084F89C
:1009500024002046FFF771FF0746380002D063E00D
:100960000220F8BDA06A20F4885040F00200A06286
:10097000022000F02BFD2E490968B1FBF0F0400089
:100980000090009828B10098401E00900098002820
:10099000F9D12046FFF77AFF2068816841F008010D
:1009A000816000F055FC05462068806810F0080F53
:1009B00013D000F04DFC401B0A2809D9A06A20F092
:1009C000020040F01000A06284F824600120F8BD0D
:1009D0002068806810F0080FEBD12068816841F032
:1009E0000401816000F034FC05462068806810F046
:1009F000040F13D000F02CFC401B0A2809D9A06A70
:100A000020F0020040F01000A06284F82460012071
:100A1000F8BD2068806810F0040FEBD1A06A20F0C8
:100A2000020040F00100A06284F824603846F8BD5E
:100A30001800002078B44FF0000C0024009490F8C7
:100A40002420012A14D0012280F824204A681F257E
:100A5000072A10D203685E6B521E02EB8202954099
:100A600026EA05050E6806FA02F22A435A631FE0D9
:100A700078BC022070470D2A0DD203681E6BD21F6E
:100A800002EB8202954026EA05050E6806FA02F29C
:100A90002A431A630CE00368DE6A0D3A02EB820215
:100AA000954026EA05050E6806FA02F22A43DA6244
:100AB0000A6807250A2A0DD30368DE680A3A02EBA2
:100AC0004202954026EA05058E6806FA02F22A439C
:100AD000DA600BE003681E6902EB4202954026EAE9
:100AE00005058E6806FA02F22A431A610A68102A7E
:100AF00001D0112A0BD10268A2F18043B3F59233E1
:100B00000AD0816A41F0200181624FF0010C80F827
:100B1000244078BC60467047936813F4000FF6D108
:100B2000936843F40003936009681029EFD10949E1
:100B3000094A0968B1FBF2F101EB8101490000911A
:100B400000990029E3D00099491E009100990029DD
:100B5000F9D1DCE71800002040420F000068C06CAB
:100B6000704700002DE9F041044600270025002CC5
:100B700003D0A06A002618B108E00120BDE8F0818A
:100B8000E66284F82460204600F07CF82046FFF7F7
:100B900054FE0146A06A10F0100F00D139B1A06ACE
:100BA00040F01000A06201210846BDE8F081A06A73
:100BB00020F4885040F00200A062E2696068E368B7
:100BC000104347EA43020243A068B0F5807F08D093
:100BD000012806D00020D4F814C0BCF1010F03D0C6
:100BE0000BE04FF48070F6E7F3B1A36A43F0200303
:100BF000A362E36A43F00103E3622368D3F804C00D
:100C00002CF4694C4CEA0000586020688368DFF8D7
:100C10006CC003EA0C0313438360A068B0F5807FC7
:100C200009D0012807D009E0A3695B1E40EA4330E0
:100C300040F40060E1E7208A401E05052068C36A91
:100C400023F470032B43C362206880680C4B184068
:100C5000904207D1E662A06A20F0020040F0010055
:100C6000A062A1E7A06A20F0020040F01000A0629C
:100C7000E06A40F00100E062012195E7FDF7E1FF45
:100C8000FE0E1FFF10B586B00446002002900390B0
:100C90000490059014492068884222D100BF13486F
:100CA000806940F40070114988610846806900F449
:100CB0000070019000BF00BF00BF0846806940F08F
:100CC000100088610846806900F01000019000BFA4
:100CD00000BF012002900320039002A9044800F005
:100CE000B3F906B010BD000000240140001002401E
:100CF000001001402DE9F84304460D464FF000086E
:100D0000CDF8008000F0A4FA06462068816811F44E
:100D1000807F08D0A06A40F02000A06284F8248080
:100D20000120BDE8F883416811F4807F03D1C16AD6
:100D300011F4700F1FD0022000F048FB44490968ED
:100D4000B1FBF0F320680169424A11424FEA6202A6
:100D50004FEAA2112BD1D0F80CC04F001CEA070FAC
:100D600025D1D0F810C01CEA020F31D1C06808426A
:100D70002ED114202FE0006810F0020F48D1B5F1F9
:100D8000FF3F0ED025B100F063FA801BA84208D9BE
:100D9000A06A40F00400A06284F824800320BDE82B
:100DA000F8832068006810F0020FE8D030E0D0F837
:100DB00010C01CEA020F02D1C2680A4206D00269C2
:100DC00025490A4206D1C068084203D1542002E0F6
:100DD000292000E0FC2003FB00F70098B84217D25E
:100DE000B5F1FF3F0ED025B100F032FA801BA842CA
:100DF00008D9A06A40F00400A06284F8248003208F
:100E0000BDE8F8830098401C00900098B842E7D3F2
:100E100021686FF012000860A06A40F40070A062C0
:100E2000206880684FF4602131EA00000DD1E0684D
:100E300058B9A06A20F48070A062A06A10F4805FA4
:100E400003D1A06A40F00100A0620020BDE8F88351
:100E500018000020244992244992240070B50446C9
:100E600094F8240001280DD0012084F824002046A5
:100E7000FFF70CFD02464FF0000C2AB184F824C0A5
:100E8000104670BD022070BDA06A20F0010020F461
:100E9000007040F48070A062274B20682749984278
:100EA0001AD10D6815F4702F16D0A56A45F4801577
:100EB000A5620D6815F4806F05D0A56A25F400556C
:100EC00045F48055A562A56A15F4805F13D0E56AE4
:100ED00025F00605E56210E0A56A25F48015A562F7
:100EE000456815F4806FEED0A56A25F4005545F4E9
:100EF0008055A562E7E7C4F82CC084F824C06FF0E1
:100F0000020CC0F800C02068D0F808C04FF460247C
:100F100034EA0C0C05D1984208D1096811F4702FFD
:100F200004D0816841F480118160A9E7816841F4AF
:100F3000A0018160A4E700000028014004240140D2
:100F400010B5044694F82400012807D0012084F845
:100F500024002046FFF771FC10B107E0022010BD0D
:100F6000A16A21F4885141F00101A162002184F8B5
:100F7000241010BD70B5044600F06AF90546B4F1BE
:100F8000FF3F02D004480078044400F061F9401BA0
:100F9000A042FAD370BD00001C00002010B504462A
:100FA000B4F5807F0DD14FF480511F4800F044F913
:100FB0001E48007808B9012000E000201B49087095
:100FC00031E0B4F5007F0DD14FF40051164800F028
:100FD00033F91648407808B9012000E00020134991
:100FE000487020E0B4F5806F0DD14FF480410E4879
:100FF00000F022F90D48807808B9012000E00020B7
:101000000A4988700FE0B4F5006F0CD14FF400412D
:10101000054800F011F90548C07808B9012000E042
:1010200000200249C87010BD001401400D000020CE
:1010300010B504490A68024202D00860FFF7AEFF0B
:1010400010BD0000140401402DE9F84F00239C4618
:10105000DFF8D8810F2708F1040909F1040A0AF121
:10106000040B012202FA0CF60A683240B2427CD12B
:10107000DFF8BCE14C68A4EB0E0574452BD00DDC09
:10108000032C34D005DC34B3012C19D0022C2FD121
:101090001BE0112C16D0122C2AD119E0B5F5881FAF
:1010A00019D006DCB5F5803F15D0B5F5801F1FD1EE
:1010B00011E0B5F5001F0ED0B5F5041F18D10AE0F8
:1010C000CB6815E0CB681B1D12E0CB6808330FE03E
:1010D000CB680C330CE08B6823B1012B04D00823C0
:1010E000466105E0042303E00823066100E00023D5
:1010F000B2F5807F01D2054601E000F1040502D27D
:101100004FEA8C0403E0ACF108044FEA84042E6833
:1011100007FA04FE26EA0E0603FA04F446EA04047B
:101120002C604C6814F0805F78D0424CA56945F083
:101130000105A561A46904F0010400942CF00304E6
:1011400004F1804404F58034A6684FEA8C754FEAB8
:10115000157507FA05FE26EA0E0EA0F18046B6F5D3
:10116000843620D0A0F1804600E057E0B6F5863600
:101170001BD0A0F18046B6F5883618D0A0F1804685
:10118000B6F58A3615D0042606FA05F545EA0E05A9
:10119000A5604C6814F4803F0DD0D8F8004014438B
:1011A000C8F800400CE00026EEE70126ECE7022636
:1011B000EAE70326E8E7D8F800409443C8F800407F
:1011C0004C6814F4003F05D0D9F800401443C9F826
:1011D000004004E0D9F800409443C9F800404C684E
:1011E00014F4801F05D0DAF800401443CAF8004018
:1011F00004E0DAF800409443CAF800404C6814F464
:10120000001F05D0DBF800402243CBF8002005E0AA
:10121000DBF8004024EA0202CBF800200CF1010CBC
:10122000BCF1100FFFF41DAFBDE8F88F00040140C2
:101230000000111000100240C2685140C1607047A8
:10124000002A01D001617047090401617047000064
:1012500001488068704700001C0000200248816837
:1012600002781144816070471C00002010B50748C7
:10127000016841F010010160032000F095F80020A2
:1012800000F006F800F026F8002010BD0020024013
:1012900070B504460D4D4FF47A712878B1FBF0F02B
:1012A0000B490968B1FBF0F000F048FE08B10120DD
:1012B00070BD102C07D200222146501E00F040F8CD
:1012C0006C60002070BD012070BD00001C0000207B
:1012D0001800002008B500BF1148806940F00100E7
:1012E0000F4988610846806900F00100009000BF46
:1012F00000BF00BF0846C06940F08050C861084682
:10130000C06900F08050009000BF00BF00BF0549D9
:10131000486820F0E06040F00070486000BF08BD01
:10132000001002400000014000F01F01012202FAFB
:1013300001F14009800000F1E020C0F80011704781
:1013400010B4184B1B68C3F30223C3F1070CBCF1A4
:10135000040F01D94FF0040C1C1D072C01D20023EF
:1013600000E0DB1E012404FA0CFCACF1010C0CEAD9
:101370000101994004FA03F35B1E1A40114300284F
:1013800008DA00F00F0000F1E020090180F8141DD8
:1013900010BC704700F1E020090180F8001410BC77
:1013A000704700000CED00E000F00700064A1168ED
:1013B0004FF6FF03194041EA002040F0FD7040F075
:1013C00080601060704700000CED00E010B588B040
:1013D000014662A0D0F800C083684268C068CDF8BA
:1013E00010C006930592079060A0D0F808C043682B
:1013F0000268C068CDF808C00193009203900020F5
:101400005E4B5F4C04294ED00EDC01297CD00229B2
:1014100008D100F09FFA6168C1F38131491C49008D
:10142000B0FBF1F008B010BD082957D01029F9D150
:101430006268216811F0807FF4D004A8C2F3834170
:10144000415C12F4803F21D0E06A00F00F001DF8EB
:101450000000E26A12F4803F0FD0E26AC2F3031286
:1014600002F1010CE26AC2F30322921CB3FBFCF30B
:101470005A43B2FBF0F0484302E0B3FBF0F04843BC
:101480009DF81D208A4203D1400801E03D484843B1
:10149000616811F4800FC5D13B494000A1FB0010E9
:1014A000400808B010BDE16A11F4003F11D0216876
:1014B00011F0805FF5D0E06AC0F30310401CE16AD0
:1014C000C1F30331891CB3FBF0F04843400008B07E
:1014D00010BD08B0BDE8104000F04CBAE16A11F44C
:1014E000802F12D0216811F0805FF0D0E06AC0F345
:1014F0000310401CE16AC1F30331891CB3FBF0F017
:10150000484308B0400010BD04E008B0BDE81040FA
:1015100000F030BA216A01F44072B2F5807F06D142
:1015200011F0020F03D008B04FF4004010BDB2F527
:10153000007F07D1626A12F0020F03D049F64040E3
:1015400008B010BD4FF4407232EA0101F8D12168B1
:1015500011F4003FF4D008B00C4810BD00000405A1
:101560000607080900000000000D00000102030446
:1015700005060708090A0B0C0D0E0F1040787D01B7
:101580000010024000093D00ABAAAAAAF0FA02002E
:101590002DE9F84F044600262078704D10F0010F19
:1015A0004FF0010967D00027E86910F0805F08D18B
:1015B000E86940F08050E861E86900F080500090F0
:1015C0000127DFF89CA1DAF8000010F4807F1BD11E
:1015D000DAF8000040F48070CAF80000FFF738FE27
:1015E0008046DAF8000010F4807F0DD1FFF730FE5E
:1015F000A0EB0800642802D90320BDE8F88FDAF8D0
:10160000000010F4807FF1D0286A00F4407030B3FD
:10161000A18801F44071814221D0286A20F44070F1
:101620005049C1F8009000220A60286210F0010FB2
:1016300015D0FFF70DFE8046286A10F0020F0ED17C
:1016400041F2883AFFF704FEA0EB0800504502D9AA
:101650000320BDE8F88F286A10F0020FF2D0286A44
:10166000616820F4407008432862012F03D1E869C3
:1016700020F08050E861207810F0020F05D06868F3
:10168000A16820F4404008436860207810F0040FFF
:1016900005D0E86AE16820F400300843E862207869
:1016A00010F0080F05D0E86A216920F48020084373
:1016B000E862E86A10F4003F03D1E86A10F4802F72
:1016C00000D00126012E3BD1286810F0805F08D0A1
:1016D000E86A616900F47040884231D00120BDE8B9
:1016E000F88F286810F0806F08D0E86AA16900F0D0
:1016F000F000884202D00120BDE8F88FE86AA169B5
:1017000020F0F0000843E862E86A616920F4704064
:101710000843E8621448C0F87090FFF799FD064648
:10172000286810F0005F0BD1FFF792FD801B642842
:1017300002D90320BDE8F88F286810F0005FF3D0CD
:10174000207810F0100F05D06868E16920F480005F
:10175000084368600020BDE8F88F000000100240D8
:101760000070004040044242000042422DE9F04730
:1017700004460D46DFF8A081D8F8000000F007000D
:10178000A8420FD2D8F8000020F007002843C8F87C
:101790000000D8F8000000F00700A84202D00120A5
:1017A000BDE8F08720685D4F10F0020F14D010F0F4
:1017B000040F03D0786840F4E0607860207810F07F
:1017C000080F03D0786840F4605078607868A168AA
:1017D00020F0F00008437860207810F0010F5FD00F
:1017E0006068012806D002280BD0396811F0020F7A
:1017F00029D00AE0396811F4003F06D10120BDE884
:10180000F087396811F0007F1AD0796821F0030160
:1018100008437860FFF71CFD0646606841F288398E
:10182000012813D0022824D0786810F00C0F37D08C
:10183000FFF70EFD801B48452ED90320BDE8F08739
:101840000120BDE8F0870120BDE8F087786800F04E
:101850000C00042824D0FFF7FBFC801B484502D96C
:101860000320BDE8F087786800F00C000428F2D16E
:1018700016E0786800F00C00082811D0FFF7E8FCAB
:10188000801B484502D90320BDE8F087786800F046
:101890000C000828F2D103E0786810F00C0FC7D1D3
:1018A000D8F8000000F00700A8420FD9D8F80000CF
:1018B00020F007002843C8F80000D8F8000000F026
:1018C0000700A84202D00120BDE8F087207810F080
:1018D000040F05D07868E16820F4E0600843786080
:1018E000207810F0080F06D07868216920F4605045
:1018F00040EAC100786000F03DF87968084AC1F319
:101900000311515CC840074908600020FFF7C0FC84
:101910000020BDE8F08700000020024000100240D7
:10192000B83F000818000020014800687047000018
:101930001800002000B5FFF7F7FF04494968044A82
:10194000C1F30221515CC84000BD000000100240FC
:10195000C83F000800B5FFF7E7FF04494968044A9B
:10196000C1F3C221515CC84000BD0000001002401C
:10197000C83F0008F0B589B02BA0836842680168B1
:10198000C06806930592049107902BA003684268F3
:101990008168C06800930192029103902A4B5868B5
:1019A00000F00C01042904D0082905D0274809B00B
:1019B000F0BD274809B0F0BD04A9C0F383428C5C98
:1019C00010F4803F2BD0D86A00F00F001DF8000003
:1019D000D96A11F4803F17D0D96AC1F303114A1CA8
:1019E000D96AC1F30321891CA2FB0023A1FB0416C1
:1019F000DFF85CC00025A1FB0C0706FB0C7C01FB9B
:101A000005C1FEF7C3FB03E011496143B1FBF0F0F0
:101A10009DF81D10A142CDD109B04008F0BD0D4880
:101A200009B06043F0BD0000000004050607080986
:101A300000000000000D0000010203040506070875
:101A4000090A0B0C0D0E0F100010024000127A0054
:101A500040787D0100093D002DE9F84F0446FD4D19
:101A6000207810F0010F68D0686800F00C0004289E
:101A700008D0686800F00C0008280DD1686810F4E0
:101A8000803F09D0286810F4003F56D0A068002895
:101A900053D10120BDE8F88FA068B0F5803F15D084
:101AA000C8B1B0F5A02F1FD0286820F4803028607E
:101AB000286820F480202860A06858B3FFF7C8FB8E
:101AC0000646286810F4003F17D036E0286840F436
:101AD00080302860F0E7286820F48030286028688B
:101AE00020F480202860E7E7286840F48020286000
:101AF000286840F480302860DEE7FFF7A9FB801BF0
:101B0000642802D90320BDE8F88F286810F4003F4C
:101B1000F3D012E0FFF79CFB0646286810F4003F64
:101B20000BD0FFF795FB801B642802D90320BDE88A
:101B3000F88F286810F4003FF3D12078C64F10F0DA
:101B4000020F4FF001094FF0000854D0686810F000
:101B50000C0F14D0686800F00C00082803D16868E6
:101B600010F4803F0BD0606978B3C7F80090FFF79E
:101B70006FFB0646286810F0020F12D01DE028689F
:101B800010F0020F05D06069012802D00120BDE8E5
:101B9000F88F2868A16920F0F80040EAC1002860A9
:101BA00029E0FFF755FB801B022802D90320BDE87E
:101BB000F88F286810F0020FF3D02868A16920F090
:101BC000F80040EAC100286015E0FFE7C7F8008090
:101BD000FFF73EFB0646286810F0020F0BD0FFF718
:101BE00037FB801B022802D90320BDE8F88F286844
:101BF00010F0020FF3D1207810F0080F30D0974882
:101C0000E169C1B1C0F80090FFF722FB0646686A9F
:101C100010F0020F0BD1FFF71BFB801B022802D92B
:101C20000320BDE8F88F686A10F0020FF3D001209E
:101C300000F0C6FE14E0C0F80080FFF709FB06467E
:101C4000686A10F0020F0BD0FFF702FB801B02281E
:101C500002D90320BDE8F88F686A10F0020FF3D1B3
:101C6000207810F0040F6FD00026E86910F0805F34
:101C700008D1E86940F08050E861E86900F08050E0
:101C800000900126DFF8D8B1DBF8000010F4807F67
:101C90001BD1DBF8000040F48070CBF80000FFF7A8
:101CA000D7FA8246DBF8000010F4807F0DD1FFF7F1
:101CB000CFFAA0EB0A00642802D90320BDE8F88F10
:101CC000DBF8000010F4807FF1D02069012816D0E5
:101CD000D0B1052821D0286A20F001002862286AA6
:101CE00020F004002862206941F2883B68B3FFF7C6
:101CF000AFFA8246286A10F0020F17D03AE0286A3D
:101D000040F001002862EEE7286A20F00100286216
:101D1000286A20F004002862E5E7286A40F0040001
:101D20002862286A40F001002862DCE7FFF790FA99
:101D3000A0EB0A00584502D90320BDE8F88F286AB5
:101D400010F0020FF2D015E01AE0FFE7FFF780FA7B
:101D50008246286A10F0020F0CD0FFF779FAA0EB48
:101D60000A00584502D90320BDE8F88F286A10F010
:101D7000020FF2D1012E03D1E86920F08050E86112
:101D8000E06A98B3696811F4803F0BD0696801F08C
:101D90000C01082906D1E96A11F4803F02D0012024
:101DA000BDE8F88F022814D0E86A20F48030E86299
:101DB000C7F86880FFF74CFA0646286810F0006FF5
:101DC00059D0FFF745FA801B642850D90320BDE89D
:101DD000F88F286810F0805F09D0E86A616B00F026
:101DE000F000884203D00120BDE8F88F43E0C7F837
:101DF0006880FFF72DFA0646286810F0006F0BD0B8
:101E0000FFF726FA801B642802D90320BDE8F88F6B
:101E1000286810F0006FF3D1E86A616B20F0F000E1
:101E20000843E862E86A216B20F470600843E862C6
:101E3000C7F86890FFF70CFA0646286810F0006FA4
:101E400019D1FFF705FA801B64280BD90320BDE8E0
:101E5000F88F00000010024000004242800442421D
:101E600000700040286810F0006FEAD003E0286896
:101E700010F0006FA5D1206AE8B3696801F00C0189
:101E8000082958D002280FD0C7F86080FFF7E0F982
:101E90000446286810F0007F4BD0FFF7D9F9001BEB
:101EA000022842D90320D2E7C7F86080FFF7D0F9B3
:101EB0000646286810F0007F0AD0FFF7C9F9801B9A
:101EC000022801D90320C2E7286810F0007FF4D16E
:101ED000606AB0F5803F09D1E86A61680843E8624A
:101EE000E86AE16820F00F000843E862A16A606ACE
:101EF0000843696800E01CE021F47411084368603D
:101F0000C7F86090FFF7A4F90446286810F0007F36
:101F10000FD1FFF79DF9001B022801D9032096E796
:101F2000286810F0007FF4D003E0286810F0007FEC
:101F3000B3D100208BE7012089E70000401EB0F1FB
:101F4000807F01D3012070474FF0E0214861044AAF
:101F5000F020107000208861072008610020704781
:101F600023ED00E07047704790F83C20012A2FD005
:101F7000012280F83C20CA680023D1F808C022F46E
:101F8000407242EA0C02D1F804C022F4806242EAB4
:101F90000C02D1F800C022F4006242EA0C02D1F82F
:101FA00010C022F4805242EA0C02D1F814C022F48C
:101FB000005242EA0C02896922F480420A4322F468
:101FC000004211430268516480F83C3000207047A1
:101FD0000220704710B490F83C20012A2AD0012337
:101FE00080F83C30022280F83D200268D2F804C01C
:101FF0002CF0700CC2F804C00268D2F804C00C685F
:102000004CEA040CC2F804C00268D2F808C02CF0F4
:10201000800CC2F808C00268D2F808C049684CEACF
:102020000101916080F83D30002180F83C1010BC27
:102030000020704710BC0220704710B50446002CE9
:1020400003D094F83D0010B107E0012010BD00203E
:1020500084F83C00204600F00DF8022084F83D0092
:10206000211D206800F04EFD012084F83D00002075
:1020700010BD000038B504460D492068884215D1CE
:1020800000BF0C48C06940F002000A49C861084618
:10209000C06900F00200009000BF00BF002211469E
:1020A0001D20FFF74DF91D20FFF73EF938BD000058
:1020B00000040040001002400168CA6842F00102BA
:1020C000CA600068016841F00101016000207047AA
:1020D00070B5044694F83C00012818D0012584F816
:1020E0003C50022084F83D002068826822F077028C
:1020F00022F47F428260086850283AD00EDC202803
:102100005FD006DC002852D0102863D154E00220B2
:1021100070BD30285AD040285CD13EE0602832D0D3
:1021200070280CD0B0F5805F03D0B0F5005F51D1BE
:1021300013E02068816821F0070181604AE0CB68E4
:102140004A688968206800F02CFD2068816821F0C9
:10215000770141F0770181603CE0CB684A6889688B
:10216000206800F01EFD2068816841F48041816094
:1021700030E0CA684968206800F0E9FD5021206815
:1021800000F01AFD26E0CA684968206800F0F2FDF8
:102190006021206800F010FD1CE0CA6849682068D2
:1021A00000F0D5FD4021206800F006FD12E000217E
:1021B000206800F001FD0DE01021206800F0FCFC1B
:1021C00008E02021206800F0F7FC03E030212068BF
:1021D00000F0F2FC84F83D50002084F83C0070BD13
:1021E000704770B50446206801694FF0000511F092
:1021F000020F17D0C16811F0020F13D0E91E016160
:10220000012020772068806910F0030F03D020465A
:10221000FFF7E6FF05E0204600F0D8F8204600F082
:1022200079F925772068016911F0040F18D0C16889
:1022300011F0040F14D06FF0040101610220207727
:102240002068806910F4407F03D02046FFF7C8FF64
:1022500005E0204600F0BAF8204600F05BF925774B
:102260002068016911F0080F18D0C16811F0080F3B
:1022700014D06FF008010161042020772068C06944
:1022800010F0030F03D02046FFF7AAFF05E0204619
:1022900000F09CF8204600F03DF9257720680169A0
:1022A00011F0100F18D0C16811F0100F14D06FF09A
:1022B00010010161082020772068C06910F4407F78
:1022C00003D02046FFF78CFF05E0204600F07EF8A3
:1022D000204600F01FF925772068016911F0010FF1
:1022E00009D0C16811F0010F05D06FF00101016143
:1022F000204600F027F92068016911F0800F09D00D
:10230000C16811F0800F05D06FF080010161204697
:10231000FFF728FE2068016911F0400F09D0C1685D
:1023200011F0400F05D06FF040010161204600F030
:1023300011F92068016911F0200F0BD0C16811F06C
:10234000200F07D06FF0200101612046BDE87040EA
:10235000FFF709BE70BD000010B586B0044600202E
:10236000029003900490059014492068884222D17D
:1023700000BF1348806940F0400011498861084659
:10238000806900F04000019000BF00BF4FF4804022
:10239000029002200390059002A90A48FEF754FE1D
:1023A00000BF0949486820F0C00040F0E06040F0FC
:1023B000C000486000BF06B010BD0000002C014006
:1023C000001002400018014000000140704770B545
:1023D00004460D4694F83C0001280DD0012684F8EF
:1023E0003C60022084F83D0042B1042A1AD0082A39
:1023F0002DD00C2A53D13EE0022070BD2946206822
:1024000000F0E2FB2068816941F0080181612068E9
:10241000816921F004018161206881692A69114381
:1024200081613CE02946206800F002FC2068816957
:1024300041F4006181612068816921F480618161DA
:10244000206881692A6941EA0221816127E02946E1
:10245000206800F021FC2068C16941F00801C161D9
:102460002068C16921F00401C1612068C1692A693D
:102470001143C16113E02946206800F041FC206847
:10248000C16941F40061C1612068C16921F48061C2
:10249000C1612068C1692A6941EA0221C16184F8E9
:1024A0003D60002084F83C0070BD10B50446002C4F
:1024B00003D094F83D0010B107E0012010BD0020CA
:1024C00084F83C00204600F00DF8022084F83D001E
:1024D000211D206800F016FB012084F83D0000203B
:1024E00010BD000008B5094A016891420DD100BF36
:1024F0000749896941F40061054A9161114689697A
:1025000001F40061009100BF00BF08BD002C014034
:1025100000100240704710B504460122206800F008
:1025200033FB2068A0F18041B1F5963103D1416CB5
:1025300041F4004141642068016841F001010160FB
:10254000002010BD02490968491C014A116070470A
:1025500014000020704770B50446002C04D094F895
:102560003900002510B106E0012070BD84F8385014
:10257000204600F023F8242084F839002068C16840
:1025800021F40051C160204600F006FC206801697A
:1025900021F4904101612068416921F02A014161E3
:1025A0002068C16841F40051C160E563202084F8CF
:1025B000390084F83A00002070BD000010B586B0E4
:1025C0000446002002900390049005901A49206868
:1025D00088422ED100BF1948806940F480401749D5
:1025E00088610846806900F48040019000BF00BF08
:1025F00000BF0846806940F0040088610846806991
:1026000000F00400019000BF00BF481502900220B6
:1026100003900320059002A90948FEF715FD4FF429
:102620008060029000200390049002A90448FEF705
:102630000BFD06B010BD0000003801400010024044
:10264000000801402DE9F84304460D4691461E4618
:1026500094F83900202802D00220BDE8F8834DB359
:10266000B9F1000F26D094F83800012825D00120B8
:1026700084F838000027E763212084F83900FEF74A
:10268000E7FD8046A4F82490A4F82690E08CA0B33F
:10269000E08C401EE084A068B0F5805F10D0434617
:1026A000002280212046009600F050FCF0B103206B
:1026B000BDE8F8830120BDE8F8830220BDE8F88377
:1026C0004346002280212046009600F03FFC10B1D6
:1026D0000320BDE8F88328882168C0F3080048601B
:1026E000206908B16D1C05E0AD1C03E0216815F8F8
:1026F000010B4860E08C0028CAD1434600224021EB
:102700002046009600F022FC10B10320BDE8F883BB
:10271000202084F8390084F838700020BDE8F88360
:1027200000BFFEE70EB50020009001900290124815
:1027300012490860002111488160C16041614FF475
:102740006021C16100200D49486001210B480161F1
:10275000FEF708FA08B1FEF7F0F80A200090012011
:1027600001900020029069460448FEF763F908B121
:10277000FEF7E3F80EBD0000002401402C0000200D
:1027800000B585B00020019002900390049000BF36
:102790003148806940F010002F49886108468069FF
:1027A00000F01000009000BF00BF00BF0846806925
:1027B00040F0400088610846806900F040000090C9
:1027C00000BF00BF00BF0846806940F0200088615C
:1027D0000846806900F02000009000BF00BF00BFE5
:1027E0000846806940F0040088610846806900F06E
:1027F0000400009000BF00BF00224FF47041174852
:10280000FEF71EFD4FF47060019015480290002005
:10281000039001A91148FEF717FC4FF47040019096
:1028200001200290002003900220049001A90B488F
:10283000FEF70AFC002211461720FEF781FD172043
:10284000FEF772FD002211462820FEF779FD2820B0
:10285000FEF76AFD05B000BD001002400014014003
:102860000000111000B591B000200F9010901C21B5
:1028700008A8FDF7D3FC1C2101A8FDF7CFFC2348D5
:1028800023490860152048600021214881604FF6E7
:10289000FF71C1600021016141618161FFF705FEA7
:1028A00008B1FEF74AF800200F9010900FA91848C1
:1028B000FFF790FB08B1FEF740F860200890322047
:1028C000099000200A900C900D900E900C2208A9FF
:1028D0000F48FFF77CFD08B1FEF72FF800200190AC
:1028E00002900390049005904FF400500690002051
:1028F000079001A90648FFF737FB08B1FEF71DF85E
:102900000348FFF729FD11B000BD0000002C014075
:102910005C00002000B587B0002003900490059073
:1029200006900190029014481449086015204860F0
:102930000021124881604FF6FF71C16000210161E2
:102940008161FFF77AFB08B1FDF7F7FF4FF4805084
:10295000039003A90948FFF7BBFB08B1FDF7EDFFA2
:1029600000200190029001A90448FFF733FB08B151
:10297000FDF7E3FF07B000BD000400409C0000200D
:1029800010B50B480B4908604FF416504860002101
:1029900008488160C16001610C21416100218161B1
:1029A000C161FFF7D8FD08B1FDF7C7FF10BD0000FA
:1029B00000380140DC00002000BFFEE77047704790
:1029C00081B007494FF4FA520968B1FBF2F148436C
:1029D000009000BF0098411E0091FAD201B07047EC
:1029E00018000020704710B5FEF738FC10BD00003D
:1029F00000B59BB038210DA8FDF710FC142108A8E4
:102A0000FDF70CFC20216846FDF708FC01200D9025
:102A100000040F90042010900120129000040E90EA
:102A200002201590C10316914FF4E01117911890F0
:102A30004FF4C061199140211A910DA8FFF70CF8CD
:102A400008B1FDF77AFF0F200890022009900020BE
:102A50000A904FF480600B9000200C90022108A88F
:102A6000FEF784FE08B1FDF768FF022000904FF4E6
:102A7000404002906846FEF78BFD08B1FDF75DFF10
:102A80000120024908671BB000BD0000000042425F
:102A90001448006840F00100124908600846406888
:102AA000114908400F494860084600680F4908402E
:102AB0000C4908600846006820F480200860084639
:102AC000406820F4FE0048600846006820F0A050EE
:102AD00008604FF47F0088600020C862C803044982
:102AE00008607047001002400000FFF0FFFFF6FE94
:102AF00008ED00E010B50248FFF773FB10BD0000C1
:102B00009C00002070B402681B4BDFF870C01C4CA6
:102B10001C4D984208D0B0F1804F05D0604503D0DD
:102B2000A04201D0A84203D122F070024E68324385
:102B3000984208D0B0F1804F05D0604503D0A04244
:102B400001D0A84205D122F44072D1F80CC04CEA61
:102B5000020222F08002D1F814C04CEA02020260A4
:102B60008A68C2620A688262984201D10969016377
:102B70000121416170BC7047002C014000040040FD
:102B800000080040000C004001238B40D0F820C01A
:102B90002CEA03030362036A02FA01F1194301629A
:102BA0007047D0F808C02CF47F4C42EA032211434E
:102BB00041EA0C0181607047826822F07002114383
:102BC00041F007018160704710B4026A22F00102EF
:102BD0000262036A4268D0F818C02CF0700C2CF026
:102BE000030C0C6844EA0C0C23F002038C682343AA
:102BF0000E4CA04206D123F00803CC6844EA03033C
:102C000023F0040309D122F4807222F400724C698B
:102C100044EA02028C6944EA02024260C0F818C029
:102C200049684163036210BC70470000002C0140FA
:102C300010B4026A22F010020262036A4268D0F8FD
:102C400018C02CF4E04C2CF4407C0C684CEA042CAA
:102C500023F020038C6843EA04130E4CA04206D1F3
:102C600023F08003CC6843EA041323F0400309D126
:102C700022F4806222F400624C6942EA84028C6988
:102C800042EA84024260C0F818C049688163036266
:102C900010BC7047002C014010B4026A22F480720C
:102CA0000262036A4268D0F81CC02CF0700C2CF051
:102CB000030C0C6844EA0C0C23F400738C6843EAA0
:102CC00004230E4CA04206D123F40063CC6843EAEF
:102CD000042323F4806309D122F4805222F40052A9
:102CE0004C6942EA04128C6942EA04124260C0F85C
:102CF0001CC04968C163036210BC7047002C0140CE
:102D000010B4026A22F480520262036A4268D0F868
:102D10001CC02CF4E04C2CF4407C0C684CEA042CD5
:102D200023F400538C6843EA0433A0F18044B4F5E3
:102D3000963404D122F480424C6942EA8412426003
:102D4000C0F81CC049680164036210BC7047036A84
:102D5000D0F820C02CF0010CC0F820C0D0F818C06A
:102D60002CF0F00C4CEA021223F00A0319438261A2
:102D700001627047036A23F010030362D0F818C0A1
:102D8000036A2CF4704C4CEA023223F0A00343EAAD
:102D900001118261016270472DE9F041044620680B
:102DA0000169E26821F44051114301612169A06881
:102DB0000143606901432068C26822F4037222F46F
:102DC000A0521143C16020684169A26921F4407199
:102DD0001143416120685C4D3226A0F18041B1F57C
:102DE0009C3158D0FEF7A6FD00EBC00101EB0010AE
:102DF00061688900B0FBF1F7FEF79CFD00EBC001B4
:102E000001EB001061688900B0FBF1F0A5FB001038
:102E100040096FF01801484307EB800006EB0010F3
:102E2000A5FB0010400900F0F007FEF783FD00EB62
:102E3000C00101EB001061688900B0FBF1F0A5FB57
:102E40000010400907EB0017FEF774FD00EBC0010E
:102E500001EB001061688900B0FBF1F8FEF76AFD34
:102E600000EBC00101EB001061688900B0FBF1F0DC
:102E7000A5FB001040096FF01801484308EB8000E3
:102E800006EB0010A5FB00102168C0F34310384486
:102E90008860BDE8F081FEF75DFD00EBC00101EB4D
:102EA000001061688900B0FBF1F7FEF753FD00EBFD
:102EB000C00101EB001061688900B0FBF1F0A5FBD7
:102EC000001040096FF01801484307EB800006EB43
:102ED0000010A5FB0010400900F0F007FEF73AFDD6
:102EE00000EBC00101EB001061688900B0FBF1F05C
:102EF000A5FB0010400907EB0017FEF72BFD00EBC8
:102F0000C00101EB001061688900B0FBF1F8FEF729
:102F100021FD00EBC00101EB001061688900B0FBEE
:102F2000F1F0A5FB001040096FF01801484308EBD1
:102F3000800006EB0010A5FB00102168C0F34310D1
:102F400038448860BDE8F0811F85EB512DE9F041E0
:102F50000446069D884617461E462068006838EAE3
:102F6000000020D00020B84227D1B5F1FF3F1CD08F
:102F700025B1FEF76DF9801BA84216D92068C168FB
:102F800021F4D071C1602068416921F001014161E3
:102F9000202084F8390084F83A00002084F83800B2
:102FA0000320BDE8F0810120DDE72068006838EAF1
:102FB000000005D00020B842D7D00020BDE8F08145
:102FC0000120F8E700BFFEE70FB4084B10B504A9D5
:102FD00002AA039800F0ACF8044602A9002000F011
:102FE00083F9204610BC5DF814FB0000E9320008AC
:102FF000490050EAC12018BF04204A0D18BF40F014
:10300000010040F2FF72B2EB515F08BF40F00200D6
:10301000012808BF052070472DE9F0414F1E00EB45
:10302000C7010446D1E9000115461E4637F00602E5
:103030000DD02A463346FDF7A3F97F1E04EBC703E4
:10304000D3E90023FDF7F5F837F00602F1D1022F9E
:1030500025D0042F13D0062F18BFBDE8F0812A46D3
:103060003346FDF78DF9D4E90A23FDF7E2F82A4645
:103070003346FDF785F9D4E90823FDF7DAF82A4647
:103080003346FDF77DF9D4E90623FDF7D2F82A4649
:103090003346FDF775F9D4E90423FDF7CAF82A464B
:1030A0003346FDF76DF9D4E90223FDF7C2F82A464D
:1030B0003346FDF765F9D4E90023BDE8F041FDF79B
:1030C000B8B800000022134610460149FDF7CAB9FE
:1030D0000000F03FFDF7ADB8002213461046114640
:1030E000FDF7C0B940F2013200204FF0E041FDF79A
:1030F00012BB0000024A00201107FDF70CBB0000C4
:1031000001FDFFFF02E008C8121F08C1002AFAD122
:1031100070477047002001E001C1121F002AFBD157
:103120007047000001490860704700002800002037
:103130002DE9FF4F8BB09A460F460546002606E064
:1031400025280BD052460D9990476D1C761C287887
:103150000028F5D10FB03046BDE8F08F0024A0461E
:103160000122604900E0044315F8013F203B02FAC8
:1031700003F00842F7D128782E2817D115F8010F4F
:1031800044F004042A280ED06FF02F022878A0F112
:10319000300109290AD808EB880102EB410100EB54
:1031A00001086D1CF2E757F8048B6D1C287869281C
:1031B0003ED006DC0028CDD063280BD0642804D193
:1031C00036E0732810D075284BD052460D999047A1
:1031D000761C85E017F8040B8DF8000000208DF8B0
:1031E0000100E946012003E057F8049B4FF0FF304F
:1031F00061074FF0000401D40AE0641C44450DDA75
:103200008442FADB19F804100029F6D106E0641CA8
:103210008442FCDB19F804100029F8D1264404E0AC
:1032200019F8010B52460D999047641EF8D257E0E9
:1032300001CF4FF00A0B002802DA40422D2102E0B4
:10324000210504D52B218DF82410012103E0E1078D
:1032500005D02021F7E70DF1200908910CE00021AD
:10326000F9E701CF4FF00A0BF9E75946FDF7BFF92F
:1032700001F1300209F8012D0028F6D1ADEB09006B
:1032800000F1200B600701D44FF00108D84502DDA2
:10329000A8EB0B0000E000208046002406E009A80F
:1032A0005246005D0D999047641C761C0898844234
:1032B000F5DB04E0302052460D999047761CB8F1BA
:1032C0000001A8F10108F5DC05E019F8010B5246F0
:1032D0000D999047761CBBF10001ABF1010BF4DCBA
:1032E0006D1C34E7092801000A68531C0B6010703C
:1032F000704700002DE9F041C1F30A52A2F2FF36F7
:103300002F4A304B0D460446142E2FDA002E12DAC7
:10331000FCF78FFF00221346FDF714FA4CD2002D64
:10332000A4BF0024254647DA25F00040204318BFFB
:10333000254D41D018E0DFF894C02CFA06F705EAD5
:10334000070C5CEA040C08BFBDE8F081FCF771FFD4
:1033500000221346FDF7F6F92ED2002D03DA4FF4C2
:103360008010F0400544BD43002425E0332EC8BF43
:10337000BDE8F081A6F1140C4FF0FF3727FA0CF7E7
:103380003C4208BFBDE8F081FCF7F7FF002213467E
:10339000FDF7D8F910D2002D0DDA142E08BF6D1CE0
:1033A00009D0C6F13400012101FA00F02044A04206
:1033B00038BF6D1C0446BC4329462046BDE8F08159
:1033C0009C7500883CE4377E0000F0BFFFFF0F00D3
:1033D00086B0FDF74BFFFFF70BFBFFF7D1F9FFF7C7
:1033E00041FAFFF79FF9FFF7CBFAFFF793FA0C21A9
:1033F0005548FFF790F85548FDF7A0FA5448FEF7F6
:103400005BFE4FF000090020049000BF4FF47A7477
:1034100098E04E48FDF722FD4FF47A714B48FDF7D6
:1034200069FC002855D14948FDF798FB814648467C
:10343000FDF798F88246474A474BFDF713F8CDE968
:103440000001FFF757FF0022444BCDE90201FCF7D2
:1034500091FF0746FDF793F840B204900498FDF7FA
:1034600070F8824652460B463D483E4900F092F8BD
:10347000074600223C4BFCF783FF05460E463249C7
:103480004968481CFDF76EF82A463346CDE900012D
:1034900000203649FCF7E6FF0746DDE90023FCF78C
:1034A000E1FF0022324BCDE90201FCF763FF8246C7
:1034B000FDF784F884B200BF23480068C462224844
:1034C000C46000BF204604EBD0714A101E49096851
:1034D0000A642848C07808B127A000E027A0254941
:1034E000897809B124A100E024A1224A52780AB1C6
:1034F00021A200E021A21F4B1B780BB11EA300E00C
:103500001EA3CDE90032CDE902104B461C481D49EF
:1035100002681D48FFF758FD002004E01A49095CC5
:103520001A4A1154401C3228F8DB4FF0FF33402276
:1035300016491748FFF786F86420FDF71BFD03487E
:10354000FDF7FEFC65E700005C0000202C00002079
:103550009C000020B29DEFA7C61B454000004240E2
:103560003174D9928FF3F03F00807B40882A9141DB
:103570000000F03F0D000020540000004600000055
:1035800014000020604000081C0100205C010020A5
:10359000DC0000202DE9F04D1D460C4698B0174682
:1035A00021F0004123F00043002814BF4FF0010C2C
:1035B0004FF0000C0CEB440CFE4A0CEB02064FEAF9
:1035C000620C66452BD33E0018BF012606EB45066C
:1035D0001644F94A964222D3F84A53EA070C02D01D
:1035E000944205D148B918B000201146BDE8F08DCD
:1035F000002808BF4FF0000C01D04FF0010C0CEB7D
:10360000440212F5001F0AD8002F14BF4FF0010C1E
:103610004FF0000C0CEB450212F5001F07D918B053
:103620003A462B462146BDE8F04DFFF753BD002238
:10363000DFF88CA3002CB8BF534526DADFF884C32B
:103640006345A8BF022220DADFF870C39C451CDC6A
:10365000DFF874C30CEB235CBCF1140F08DDCCF174
:10366000340627FA06FC0CFA06F6BE420DD108E035
:103670005FB9CCF1140623FA06FC0CFA06F69E425A
:1036800003D10CF00102C2F1020251EA000C19D17F
:10369000002D17DA002C18BF022A01D0012A07D00A
:1036A0000220FFF73FFD18B0BDE8F04DFFF70ABD5F
:1036B0000220FFF737FDFFF705FD18B081F000414C
:1036C000BDE8F08DB7F1000C6CD1534525D104F164
:1036D000804212F5801201BF00280020B74918B0BF
:1036E00008BFBDE8F08DB548884207DC002DA1BFBA
:1036F0006046294618B0BDE8F08D07E0281E05DABF
:1037000080F0004118B06046BDE8F08DAF497944C3
:10371000D1E9000118B0BDE8F08DDFF8A0C2634523
:1037200025D1002D1FDA19B1514512D1D8B909E0C0
:10373000002840F0EC82A24A214618B062F31E0134
:10374000BDE8F08D0020214618B060F31E01BDE8F1
:10375000F08D08DA18B02346BDE8F04D024600208F
:103760006146FCF77FBE18B02146BDE8F08D51459B
:1037700018DAB5F1804F0DD0A5F1005CBCF1FF5C0B
:1037800010D1B4F1000C0DDB18B06146BDE8F04D6E
:1037900000F0ECBB234618B00246BDE8F04D1946D8
:1037A000FCF7EEBD060024F0004C3BD1D9B15145E9
:1037B00033D1002C06DD002DA1BF0020514618B0EA
:1037C000BDE8F08D002C01DD002D1BDB002C13DA91
:1037D000002D11DB012A4FF0000014BF78497C490D
:1037E00018B0BDE8F08D022A18BF002C0AD0012ABB
:1037F00008D1002C06DA0AE0002CB8BF002D11DA3F
:10380000012A04D0002018B00146BDE8F08D18B0A0
:1038100000204FF00041BDE8F08DA1F14050B0F123
:103820007F601AD0012000EBE47050EA020421D03E
:10383000624C521E4FF0000B104304BF4FF0000BC0
:10384000644C654883427CDD644A654893421FDDD1
:10385000884217DB002D25DB37E0002C00DA4AB167
:10386000022A0CBF01204FF0FF3018B0BDE8F04D28
:10387000FCF767BE0120FFF755FC18B0BDE8F04D1E
:10388000FFF72ABC4D4A8A4202DC002D0ADC1CE00C
:10389000814202DA002D18DA04E0484B994220DD1B
:1038A000002D12DD0220FFF73DFCFFF71BFC054653
:1038B0000E460022534658462146FCF761FD18B0DB
:1038C00066F31E012846BDE8F08D0220FFF72AFCB2
:1038D000FFF710FC0A46214618B062F31E01BDE84E
:1038E000F08D002230466146FCF744FD80460E46CE
:1038F0006FF00102FCF70FFF4FF05532394BFCF728
:103900003CFD42463346FCF73BFD0022364BFCF7BC
:1039100034FD824642463346049110461946FCF770
:103920002FFD5246049BFCF72BFD8A4600904FF07A
:10393000C0422E4B40463146FCF722FD2C4A2B4B11
:1039400000E027E0CDE9060151460098FCF718FD9C
:1039500082460191274A284B40463146FCF710FD2C
:103960005246019BFCF706FD82460B460246059136
:10397000DDE90601FCF75DFCDDE90623002688464B
:103980003046FCF7F7FC5246059BFCF7F6FC024676
:1039900000F07EB90020B1F5801F07DA35223046ED
:1039A0006146FCF7B8FE06466FF0340000EB21508C
:1039B00024E00000FFFF1F00FFFF0F000000F03FAA
:1039C0000000F07F0000404301FCFFFF46090000BB
:1039D0000000F0FF0000F0BF0000E0410000F043F5
:1039E000FFFFEF3F5555D53F0000E03F4715F73F3C
:1039F000FE822B6544DF5DF80BAE543EA0F2FF3033
:103A00000190C1F3130040F07F6141F040510291F9
:103A1000FE498842D8BF002004DDFD498142C8BF6D
:103A2000012001DD0D9008E000200D900198401C60
:103A300001900298A0F5801002900299F548784410
:103A40000B910D9900EBC100D0E900230F93304694
:103A50000A920B99FCF78EFCCDE90601DDE90A21FB
:103A600030460F9BFCF7E5FB02460B460020EA4977
:103A7000FCF7F8FC059102460B460090DDE90601D3
:103A8000FCF77EFC1490E5488A464FF00008784425
:103A90000299006812904FF0005040EA61010D98C1
:103AA0000F9B01EB804000F5002109910A9A1298C2
:103AB000FCF760FC32460B9BFCF75FFC424653462A
:103AC000FCF75EFC0646029140465146099B129A5D
:103AD000FCF756FCDDE90623FCF74FFC3246029B5F
:103AE000FCF748FC059B009AFCF74AFC0091149AED
:103AF0000490534610461946FCF742FC064602461F
:103B0000C7480B46029106217844FFF785FACDE9B4
:103B10000510029B324610461946FCF731FCDDE9E0
:103B20000532FCF72DFC05910646534640461946E2
:103B3000149AFCF77EFB009B049AFCF721FC3246AA
:103B4000059BFCF776FBCDE905104246534610462F
:103B50001946FCF715FC0022B24B02910A90FCF7C3
:103B600068FBDDE90532FCF764FB0E464246AD4BCF
:103B70004046FCF7FFFB029B0A9AFCF7FBFBDDE9E2
:103B80000532FCF7FAFB424602910A903346104692
:103B90005146FCF7F5FBCDE906015346149A02990C
:103BA0000A98FCF7EDFB8A4602903346424600999C
:103BB0000498FCF7E5FB5346029AFCF73AFB824671
:103BC0000B4602460591DDE90601FCF732FBDDE913
:103BD0000623002088460646FCF7CCFB5246059B90
:103BE000FCF7CBFB824609914FF060428E4B30468A
:103BF0004146FCF7C5FB049006918C4A8A4B50461F
:103C00000999FCF7BDFB82460291894A894B3046EF
:103C10004146FCF7B5FB5246029BFCF70AFB864B7C
:103C20007B440D9A03EBC203D3E90023FCF701FBAD
:103C30000E9007910198FCF784FC0591DDE90613CD
:103C400082460E9A0498FCF7F4FA7C4A7A440D9B5B
:103C500002EBC303D3E9002300930292FCF7E9FAD5
:103C60005246059BFCF7E5FA002688465246304648
:103C7000059BFCF77FFB009B029AFCF77BFB069BF6
:103C8000049AFCF777FB079B0E9AFCF776FB02463B
:103C900000200B46029038462946FCF771FB82460D
:103CA00001912B4638461946029AFCF763FB3246CF
:103CB0004346FCF765FB5246019BFCF7BAFA074600
:103CC0008A463246434629460298FCF759FB054688
:103CD0000E463A465346FCF7ACFA594A884691429A
:103CE00021DBA8EB020353EA000210D12A46334637
:103CF000FCF740FBCDE90401524A534B384651468C
:103D0000FCF797FADDE90423FCF71CFD21D2022021
:103D1000FFF708FAFFF7E6F90A46214618B062F302
:103D20001E01BDE8F08D494B28F000429A4210D3A5
:103D3000474A08EB020353EA00027FF4C6AD2A4665
:103D40003346FCF717FB3A465346FCF7FBFC7FF67D
:103D5000BCAD0022019228F000403E493E4A01EBF2
:103D60002051824223DA481C4FF4801121FA00F0DE
:103D700040443A4AC0F30A517A44394BA1F2FF3128
:103D8000CB4020EA0303C0F3130040F48010C1F1DC
:103D90001401C84012680190B8F1000FBCBF404246
:103DA000019028463146FCF7E5FA05460E462A46BC
:103DB000334638465146FCF73CFA4FF0000842467D
:103DC000284B40460591FCF7DBFACDE90601264A6F
:103DD000264B40460599FCF7D3FA009102902A46FB
:103DE000334640460599FCF7C5FA3A465346FCF778
:103DF000C4FA1F4A1F4BFCF7C3FA009B029AFCF758
:103E000018FA0746884602460B4635E08E980300AE
:103E10007AB60B008E0500000000F03FC6050000DA
:103E2000F40400000000084009C7EE3FFD033ADC3F
:103E3000F5015B14E02F3EBECC03000090030000B0
:103E400000009040FE822B654715973C00CC9040C7
:103E500000346F3F01FCFFFF0000E03FDC02000088
:103E6000FFFF0F00432EE63F396CA80C615C20BEBB
:103E7000EF39FAFE422EE63FDDE90601FCF7D9F9FB
:103E8000DDE9062305460E46FCF774FA3A4643463A
:103E9000FCF773FA0F462A4633460090104619463F
:103EA000FCF76EFA824602462E4888460B460521EC
:103EB0007844FFF7B1F852464346FCF761FA2A46C8
:103EC0003346FCF75AFA80468A463B462846314636
:103ED000009AFCF755FA3B46009AFCF7AAF90691BE
:103EE000009000224FF0804340465146FCF742FAD2
:103EF0000F460C904246534628463146FCF740FA9E
:103F00003B460C9AFCF7AEFA069B009AFCF732FA95
:103F10002A463346FCF72EFA0022134BFCF72DFA03
:103F2000054601980E4601EB00510815002810DCEB
:103F300028463146019AFCF7EEFBFFF759F80428B2
:103F400008BFFFF7D7F828463146019AFCF7E3FB94
:103F500005460B4618B02A4658462146BDE8F04DA6
:103F6000FCF70EBA7C0100000000F03F2DE9F041A3
:103F700006460F46FCF710FC041E0D4618BF012034
:103F8000284320F00040C0F17F6000F1E040C00F06
:103F90000ED0301C18BF0120384320F00040C0F183
:103FA0007F6000F1E040C00F04BF0120FFF7BAF8C6
:103FB00020462946BDE8F081000000000000000016
:103FC00001020304060708090000000001020304BF
:103FD000000000000000F03F000000000000F83F7B
:103FE00000000000000000000000004003B8E23FB5
:103FF000000000000000000006D0CF43EBFD4C3E67
:10400000033333333333E33FFFAB6FDBB66DDB3F5B
:104010004D268F515555D53F01411DA96074D13FA3
:1040200065DBC9934A86CD3FEF4E454A287ECA3F9D
:104030003E5555555555C53F93BDBE166CC166BF1F
:104040002CDE25AF6A56113FF16BD2C541BDBBBE18
:10405000D0A4BE726937663E000000000000000078
:104060000D0A2A2054696D653A2025640D0A2A201C
:1040700054656D703A2025640D0A2A204C616D70DC
:10408000733A0D0A09312E2025730D0A09322E20AC
:1040900025730D0A09332E2025730D0A09342E20AD
:1040A00025730D0A00000000C84000080000002031
:1040B0002C00000004310008F44000082C0000200F
:1040C0007405000014310008FD0205040205020415
:1040D00002FE00FD0C0000000000000000000000D7
:1040E00000A24A04010000001000000000000000CF
:0440F00000000000CC
:04000005080001519D
:00000001FF
