:020000040800F2
:100000007806002089010008A50F0008E90E000805
:10001000A10F00088F020008311000080000000046
:10002000000000000000000000000000D50F0008E4
:100030009302000800000000A90F0008D70F000875
:10004000A3010008A3010008A3010008A301000800
:10005000A3010008A3010008A301000895020008FD
:100060009F020008A3010008A3010008A3010008E3
:10007000A3010008A3010008A3010008A3010008D0
:10008000A3010008A3010008A3010008A3010008C0
:10009000A3010008A3010008A3010008A3010008B0
:1000A000A3010008A3010008A3010008A3010008A0
:1000B000A3010008A301000800000000A30100083C
:1000C000A30100080000000000000000A3010008D8
:1000D00000000000A3010008A301000800000000C8
:1000E000A3010008A3010008A301000800F002F822
:1000F00000F03AF80AA090E8000C82448344AAF188
:100100000107DA4501D100F02FF8AFF2090EBAE885
:100110000F0013F0010F18BFFB1A43F0010318473B
:10012000740F0000940F0000103A24BF78C878C103
:10013000FAD8520724BF30C830C144BF04680C60ED
:10014000704700000023002400250026103A28BF35
:1001500078C1FBD8520728BF30C148BF0B60704739
:100160001FB51FBD10B510BD00F058F81146FFF7C0
:10017000F7FF00F07BFF00F076F803B4FFF7F2FF23
:1001800003BC00F07DF8000009488047094800479B
:10019000FEE7FEE7FEE7FEE7FEE7FEE7FEE7FEE737
:1001A000FEE7FEE704480549054A064B7047000094
:1001B0002F100008ED0000087800002078060020CD
:1001C00078020020780200204FF0000200B51346AC
:1001D00094469646203922BFA0E80C50A0E80C5067
:1001E000B1F12001BFF4F7AF090728BFA0E80C5018
:1001F00048BF0CC05DF804EB890028BF40F8042B11
:1002000008BF704748BF20F8022B11F0804F18BF7D
:1002100000F8012B7047704770477047754600F033
:100220002BF8AE4605006946534620F00700854688
:1002300018B020B5FFF7B6FFBDE820404FF000062C
:100240004FF000074FF000084FF0000B21F00701BE
:10025000AC46ACE8C009ACE8C009ACE8C009ACE801
:10026000C0098D46704710B50446AFF300802046A4
:10027000BDE81040FFF781BF004870471400002020
:1002800001491820ABBEFEE726000200704700BF00
:10029000FEE7704710B5022000F058F810BD10B509
:1002A000042000F053F810BD72B600BFFEE7000056
:1002B0002DE9F0410446022C20D122480078401C50
:1002C000204908700846007800F0010508460078CB
:1002D000C0F3400608460078C0F380072A46210292
:1002E000194800F0C7F932466102174800F0C2F918
:1002F0003A46A102144800F0BDF921E0042C1FD1B8
:1003000010480078401E0F4908700846007800F039
:10031000010508460078C0F3400608460078C0F39F
:1003200080072A46E101084800F0A4F9324621027C
:10033000054800F09FF93A466102034800F09AF937
:10034000BDE8F081000000200008014010B504461F
:1003500004480068204020B1024804602046FFF7AE
:10036000A7FF10BD140401402DE9F8470346002201
:10037000944666E14FF0010808FA02F4D1F80080D3
:1003800008EA0400A0427DD1DFF8CCA2D1F80480B5
:10039000A8EB0A09D0453AD014DCB8F1030F50D0CD
:1003A00009DCB8F1000F31D0B8F1010F1CD0B8F161
:1003B000020F49D120E0B8F1110F18D0B8F1120F97
:1003C00042D11EE0B9F5881F25D006DCB9F5803F83
:1003D00020D0B9F5801F37D11AE0B9F5001F18D029
:1003E000B9F5041F30D117E0D1F80CC02DE0D1F8D9
:1003F0000C8008F1040C28E0D1F80C8008F1080CFE
:1004000023E0D1F80C8008F10C0C1EE000BF00BF07
:1004100000BF00BF00BF00BFD1F80880B8F1000FD7
:1004200002D14FF0040C0BE0D1F80880B8F1010FB5
:1004300003D14FF0080C1C6102E04FF0080C5C6126
:1004400003E04FF0000C00E000BF00BFFF2801D820
:10045000984601E003F104084646FF2802D84FEA17
:10046000820803E0A2F108084FEA88084746D6F858
:1004700000804FF00F0909FA07F928EA09080CFA79
:1004800007F900E085E048EA0908C6F80080D1F8DD
:10049000048008F08058B8F1805F7AD100BFDFF89F
:1004A000BC81D8F8188048F00108DFF8B091C9F88D
:1004B0001880C846D8F8188008F00108CDF80080E8
:1004C00000BF00BF4FEAB9384FEA920958F82950E7
:1004D0004FEA82784FEA18794FF00F0808FA09F8C6
:1004E00025EA0805DFF87881434502D14FF000087E
:1004F0000FE0DFF87081434502D14FF0010808E0BA
:10050000DFF86481434502D14FF0020801E04FF06B
:1005100003084FEA82794FEA197908FA09F848EA9C
:100520000505DFF848814FEA920948F82950D1F8CB
:10053000048008F48038B8F5803F0AD1DFF83081B4
:10054000D8F8008048EA0008DFF82491C9F8008054
:1005500009E0DFF81C81D8F8008028EA0008DFF8FD
:100560001091C9F80080D1F8048008F40038B8F57B
:10057000003F0FD1DFF8F88008F10408D8F80080B8
:1005800048EA0008DFF8E89009F10409C9F800809A
:100590000EE055E0DFF8D88008F10408D8F80080B4
:1005A00028EA0008DFF8C89009F10409C9F80080BA
:1005B000D1F8048008F48018B8F5801F0ED1DFF858
:1005C000B08008F10808D8F8008048EA0008DFF891
:1005D000A09009F10809C9F800800DE0DFF89080CB
:1005E00008F10808D8F8008028EA0008DFF88090B1
:1005F00009F10809C9F80080D1F8048008F400184E
:10060000B8F5001F0ED1DFF8688008F10C08D8F8A3
:10061000008048EA0008DFF8589009F10C09C9F891
:1006200000800DE0DFF8488008F10C08D8F8008061
:1006300028EA0008DFF8389009F10C09C9F80080B1
:10064000521CD1F8008028FA02F8B8F1000F7FF4AC
:1006500091AEBDE8F88700000000111000100240C4
:1006600000080140000C014000100140080001405A
:10067000000401400AB1016101E00B04036170470D
:100680000148006870470000080000200348006827
:1006900003490978084401490860704708000020B0
:1006A0001000002010B50848006840F0100006490E
:1006B0000860032000F0A8F80F2000F007F800F011
:1006C0002BF8002010BD00000020024070B5044649
:1006D0000E4800784FF47A71B1FBF0F00C490968CC
:1006E000B1FBF0F5284600F0E5FB08B1012070BD34
:1006F000102C07D200222146501E00F047F8054872
:10070000046001E00120F2E70020F0E71000002083
:10071000040000200C00002008B500BF11488069CB
:1007200040F001000F4988610846806900F001002F
:10073000009000BF00BF00BF0846C06940F0805075
:10074000C8610846C06900F08050009000BF00BF3B
:1007500000BF0549486820F0E06040F080604860D4
:1007600000BF08BD001002400000014001460846DD
:10077000002809DB00F01F0301229A4043099B0077
:1007800003F1E023C3F8002100BF70472DE9F05FBB
:1007900080460D461646002700F04CFC07463946B9
:1007A0002A46334601F00700C0F1070ABAF1040FE8
:1007B00002D94FF0040A01E0C0F1070AD14600F166
:1007C000040ABAF1070F02D24FF0000A01E0A0F1CB
:1007D000030AD4464FF0010A0AFA09FAAAF1010AFB
:1007E0000AEA020A0AFA0CFA4FF0010B0BFA0CFBA8
:1007F000ABF1010B0BEA030B4AEA0B04214640461E
:1008000000F020FCBDE8F09F00BF00F00702064B9F
:1008100019684FF6FF031940044B0B4343EA0221CA
:10082000014B196000BF70470CED00E00000FA05B5
:1008300070B504460D460CB9012070BD5A480068D9
:1008400000F00700A8420ED25748006820F00700C9
:100850002843554908600846006800F00700A84290
:1008600001D00120E9E7207800F0020002281DD124
:10087000207800F00400042805D14C48406840F47A
:10088000E0604A494860207800F00800082805D157
:100890004648406840F460504449486043484068D6
:1008A00020F0F000A168084340494860207800F03B
:1008B000010078B36068012806D13C48006800F464
:1008C000003090B90120B8E76068022806D13748A7
:1008D000006800F0007040B90120AEE733480068BE
:1008E00000F0020008B90120A7E73048406820F076
:1008F0000300616808432D494860FFF7C1FE0646C2
:1009000009E0FFF7BDFE801B41F28831884202D921
:10091000032092E707E02548406800F00C0061687A
:10092000B0EB810FEDD12048006800F00700A8422D
:100930000ED91D48006820F0070028431A490860B6
:100940000846006800F00700A84201D0012074E7C3
:10095000207800F00400042807D11448406820F4EF
:10096000E060E168084311494860207800F0080021
:10097000082808D10D48406820F46050216940EAF9
:10098000C1000A49486000F019F808494968C1F3F4
:100990000311074A515CC8400649086006480068D0
:1009A000FFF794FE002048E70020024000100240BC
:1009B0007C100008040000200C000020F0B585B079
:1009C0000FF26C0C9CE8E01001A8A0E8E0101CA558
:1009D0002D68009500210022002300240020194DDD
:1009E000696801F00C05F5B1042D02D0082D19D16C
:1009F00001E0154819E001ADC1F38346AC5D01F497
:100A0000803555B10F4D6D68C5F340451DF8052083
:100A10000D4D6543B5FBF2F302E00C4D04FB05F30D
:100A2000184602E000BF084800BF00BF05B0F0BD97
:100A300002030405060708090A0B0C0D0E0F10101F
:100A4000010200000010024000127A0000093D007F
:100A5000F8B504460CB90120F8BD207800F001007B
:100A6000002878D0F848406800F00C0004280CD02A
:100A7000F548406800F00C00082811D1F2484068A1
:100A800000F48030B0F5803F0AD1EF48006800F4F0
:100A9000003000285FD0606800285CD10120DBE7CF
:100AA00000BF6068B0F5803F06D1E748006840F4B9
:100AB0008030E549086028E0606858B9E24800687D
:100AC00020F48030E04908600846006820F4802067
:100AD00008601AE06068B0F5A02F0BD1DA48006812
:100AE00040F48020D84908600846006840F480300F
:100AF00008600AE0D448006820F48030D2490860D9
:100B00000846006820F48020086000BF606888B153
:100B1000FFF7B6FD054606E0FFF7B2FD401B64286F
:100B200001D9032098E7C848006800F40030002885
:100B3000F2D010E0FFF7A4FD054606E0FFF7A0FDA8
:100B4000401B642801D9032086E7BF48006800F4F1
:100B500000300028F2D1207800F00200022857D19E
:100B6000B948406800F00C0050B1B748406800F048
:100B70000C00082818D1B448406800F4803098B9B7
:100B8000B148006800F0020020B12069012801D0BE
:100B9000012061E7AC48006820F0F800616940EA94
:100BA000C100A949086033E02069E8B10120A749E4
:100BB0000860FFF765FD054606E0FFF761FD401B95
:100BC000022801D9032047E79F48006800F002008F
:100BD0000028F2D09C48006820F0F800616940EAE3
:100BE000C1009949086013E0002098490860FFF7A8
:100BF00047FD054606E0FFF743FD401B022801D9EB
:100C0000032029E79048006800F002000028F2D194
:100C1000207800F0080008282DD1A069B8B1012083
:100C20008B490860FFF72CFD054606E0FFF728FD1D
:100C3000401B022801D903200EE78348406A00F0D8
:100C400002000028F2D0012000F0B0F913E00020EB
:100C50007F490860FFF714FD054606E0FFF710FD29
:100C6000401B022801D90320F6E67748406A00F0CD
:100C700002000028F2D1207800F00400042873D18B
:100C800000277148C06900F0805070B900BF6E48FD
:100C9000C06940F080506C49C8610846C06900F0E6
:100CA0008050009000BF00BF01276A48006800F430
:100CB0008070B0B96748006840F48070654908608A
:100CC000FFF7DEFC054606E0FFF7DAFC401B642870
:100CD00001D90320C0E65F48006800F48070002856
:100CE000F2D000BFE068012806D15748006A40F002
:100CF00001005549086227E0E06858B95248006A87
:100D000020F00100504908620846006A20F0040003
:100D1000086219E0E06805280BD14B48006A40F0F2
:100D20000400494908620846006A40F00100086270
:100D30000AE04548006A20F001004349086208467D
:100D4000006A20F00400086200BFE068A0B1FFF76D
:100D500097FC054609E0FFF793FC401B41F2883100
:100D6000884202D9032077E622E03748006A00F083
:100D700002000028EFD012E0FFF782FC054608E0F1
:100D8000FFF77EFC401B41F28831884201D90320E5
:100D900062E62D48006A00F002000028F0D1012F21
:100DA00005D12948C06920F080502749C86100BF9B
:100DB000E069C8B32448406800F00C00082860D0FF
:100DC000E069022848D1002020490866FFF758FC56
:100DD000054606E0FFF754FC401B022801D903201A
:100DE0003AE61948006800F000700028F2D1206A45
:100DF000B0F5803F07D11448406820F40030A16866
:100E0000084311494860D4E9080108430E4949687C
:100E100021F4741108430C49486001200B4908660D
:100E2000FFF72EFC054607E03DE0FFF729FC401BDD
:100E3000022801D903200FE60348006800F0007083
:100E40000028F2D02FE000000010024000004242D3
:100E50008004424200700040002014490866FFF7F9
:100E60000FFC054606E0FFF70BFC401B022801D9EA
:100E70000320F1E50E48006800F000700028F2D170
:100E800011E0E069012800D1E6E50948466806F46A
:100E90008031206A814204D106F47011606A814277
:100EA00001D00120D8E50020D6E500000000424234
:100EB0000010024070B504462546681EB0F1807FE0
:100EC00001D301200FE0681E4FF0E02148610F219F
:100ED0004FF0FF3000F0B6F800204FF0E0218861BD
:100EE00007200861002070BD00BFFEE700B585B097
:100EF0000020019002900390049000BF2448806974
:100F000040F00800224988610846806900F0080026
:100F1000009000BF00BF00BF0846806940F0040099
:100F200088610846806900F00400009000BF00BF9F
:100F300000224FF460611748FFF79CFB06200190E8
:100F4000154802900020039001A91448FFF70CFAFD
:100F50004FF4606001900120029000200390022075
:100F6000049001A90B48FFF7FFF900221146072062
:100F7000FFF70CFC0720FFF7F9FB002211460820C1
:100F8000FFF704FC0820FFF7F1FB05B000BD0000EF
:100F9000001002400008014000001110000C014048
:100FA00000BFFEE700BFFEE77047000008B5084934
:100FB0000968C9084FF47A72B1FBF2F1414300911C
:100FC00000BF00BF00994A1E00920029F9D108BD58
:100FD00004000020704710B5FFF758FB10BD00B5A6
:100FE0008FB0282105A8FFF7EFF814216846FFF716
:100FF000EBF8022005900120099010200A900020B3
:101000000C9005A8FFF724FD08B1FFF74DF90F205C
:101010000090002001900290039004900021684607
:10102000FFF706FC08B1FFF73FF90FB000BD7047AE
:1010300000BFFEE702480068C0F3022070470000CE
:101040000CED00E010B5002804DB0A07130E054A7A
:10105000135406E00A07140E034A00F00F031B1F87
:10106000D45410BD00E400E018ED00E0FFF71AFBD7
:10107000FFF7B5FFFFF73AFF00BFFEE700000000F3
:101080000000000001020304060708090000000038
:1010900001020304B4100008000000201400000046
:1010A00028010008C8100008140000206406000091
:1010B00044010008000000000024F40000000000CB
:0810C000100000000100000017
:04000005080000ED02
:00000001FF
