:020000040800F2
:10000000A8060020ED010008751F0008451E000825
:10001000711F0008D10400082B2000080000000018
:10002000000000000000000000000000A51F000804
:10003000D504000800000000791F0008A71F000871
:10004000070200080702000807020008070200086C
:10005000070200080702000807020008D70400088A
:10006000E104000807020008070200080702000870
:10007000070200080702000807020008070200083C
:10008000070200080702000807020008070200082C
:10009000070200080702000807020008070200081C
:1000A000070200080702000807020008070200080C
:1000B00007020008070200080702000807020008FC
:1000C00007020008070200080702000807020008EC
:1000D00007020008070200080702000807020008DC
:1000E00007020008070200080702000800000000DD
:1000F0000000000000000000000000000000000000
:1001000000000000000000000702000807020008CD
:10011000070200080702000807020008070200089B
:10012000070200080702000807020008070200088B
:10013000070200080702000807020008070200087B
:10014000070200080702000807020008070200086B
:1001500000F002F800F03AF80AA090E8000C82449F
:100160008344AAF10107DA4501D100F02FF8AFF27C
:10017000090EBAE80F0013F0010F18BFFB1A43F085
:1001800001031847C41F0000E41F0000103A24BFF9
:1001900078C878C1FAD8520724BF30C830C144BFEC
:1001A00004680C607047000000230024002500262E
:1001B000103A28BF78C1FBD8520728BF30C148BFCA
:1001C0000B6070471FB51FBD10B510BD00F0CFF814
:1001D0001146FFF7F7FF01F047FF00F0EDF803B419
:1001E000FFF7F2FF03BC00F0F5F800000948804774
:1001F00009480047FEE7FEE7FEE7FEE7FEE7FEE709
:10020000FEE7FEE7FEE7FEE704480549054A064B20
:10021000704700002920000851010008A8000020B4
:10022000A8060020A8020020A802002053EA020C21
:1002300000F069802DE9F04B4FF00006002B1FBF46
:10024000B3FA83F503FA05F424FA05F65E4012BF0B
:100250001643B2FA82F502FA05F4C5F120051EBF75
:1002600022FA05FC44EA0C04203556EA044C4FEA15
:10027000144418BF641C4FF000084FF0000990426E
:1002800071EB030C39D3002919BFB1FA81F701FAD8
:1002900007F6B0FA80F700FA07F6C7F120071EBF8D
:1002A00020FA07FC46EA0C062037B6FBF4FCA7EB65
:1002B0000507103F07F01F0BCBF120060CFA0BFBD4
:1002C0002CFA06F644BFB3460026202FA4BF5E4694
:1002D0004FF0000B5BEA060C08BF4FF0010B19EB67
:1002E0000B09ABFB027C48EB0608C01B06FB02CCEB
:1002F0000BFB03CC71EB0C01C1E70B4602464146F8
:100300004846BDE8F08B13B54FF000004FF00001F8
:10031000AFF30080BDE81C4070474FF0000200B50D
:10032000134694469646203922BFA0E80C50A0E818
:100330000C50B1F12001BFF4F7AF090728BFA0E8C6
:100340000C5048BF0CC05DF804EB890028BF40F892
:10035000042B08BF704748BF20F8022B11F0804FD4
:1003600018BF00F8012B70477047704770477546FB
:1003700000F02CF8AE4605006946534620F0070011
:10038000854618B020B5FFF73FFFBDE820404FF08D
:1003900000064FF000074FF000084FF0000B21F06F
:1003A0000701AC46ACE8C009ACE8C009ACE8C0093C
:1003B000ACE8C0098D46704710B50446AFF3008025
:1003C0002046BDE81040FFF70ABF00000048704714
:1003D0004400002001491820ABBEFEE726000200C1
:1003E000704770B5044600252068806800F0010061
:1003F00018B32068806820F001002168886000F050
:10040000EFFD054613E000F0EBFD401B02280ED97E
:100410002068806800F0010048B1A06A40F0100038
:10042000A062E06A40F00100E062012070BD206837
:10043000806800F001000028E5D10020F6E7000008
:1004400038B504460025002000902068806800F040
:10045000010078BB2068806840F001002168886056
:10046000194800681949B0FBF1F0009002E00098CB
:10047000401E009000980028F9D100F0B1FD05461B
:1004800019E000F0ADFD401B022814D920688068F7
:1004900000F0010078B9A06A40F01000A062E06AA4
:1004A00040F00100E06200BF002084F8240000BF9B
:1004B000012038BD05E02068806800F001000028B8
:1004C000DFD00020F5E700001000002040420F00C0
:1004D00000BFFEE7704710B5022000F0DDFB10BD45
:1004E00010B5042000F0D8FB10BD72B600BFFEE7C7
:1004F000F8B5044600260020009000BF94F82400C0
:10050000012801D10220F8BD012084F8240000BF99
:100510002046FFF766FF0646002E6CD1A06A20F445
:10052000885040F00200A062022000F031FE354900
:100530000968B1FBF0F04000009002E00098401E16
:10054000009000980028F9D12046FFF779FF206835
:10055000806840F008002168886000F041FD054691
:1005600016E000F03DFD401B0A2811D92068806884
:1005700000F0080060B1A06A20F0020040F0100016
:10058000A06200BF002084F8240000BF0120BAE769
:100590002068806800F008000028E2D120688068A8
:1005A00040F004002168886000F01AFD054616E05E
:1005B00000F016FD401B0A2811D92068806800F061
:1005C000040060B1A06A20F0020040F01000A062B8
:1005D00000BF002084F8240000BF012093E72068BA
:1005E000806800F004000028E2D1A06A20F0020038
:1005F00040F00100A06200BF002084F8240000BF8A
:10060000304680E71000002038B502460023002065
:10061000009000BF92F82400012801D1022038BDCB
:10062000012082F8240000BF4868072812D2106811
:10063000406B0C79641E04EB84051F24AC40A0437E
:100640000D796D1E05EB85050C68AC4020431468E0
:10065000606327E048680D2812D21068006B0C799F
:10066000E41F04EB84051F24AC40A0430D79ED1F6B
:1006700005EB85050C68AC4020431468206311E04D
:100680001068C06A0C790D3C04EB84051F24AC4053
:10069000A0430D790D3D05EB85050C68AC4020436A
:1006A0001468E06208680A2812D31068C0680C78E1
:1006B0000A3C04EB44050724AC40A0430D780A3DF6
:1006C00005EB45058C68AC4020431468E0600FE002
:1006D000106800690C7804EB44050724AC40A04383
:1006E0000D7805EB45058C68AC402043146820610B
:1006F0000868102802D00868112827D1174C106804
:10070000A0421ED11068806800F40000F0B91068A3
:10071000806840F400001468A0600868102815D1B3
:100720000F4800680F4CB0FBF4F000EB8000400075
:10073000009002E00098401E009000980028F9D137
:1007400004E0906A40F020009062012300BF002086
:1007500082F8240000BF184661E700000024014031
:100760001000002040420F0001460868C06C70472E
:100770002DE9F0410446002700250026A84614B9BB
:100780000120BDE8F081A06810B1207D00B100BF5C
:10079000A06A30B90020E06284F82400204600F00E
:1007A00089F82046FFF71DFE0746A06A00F01000FA
:1007B000002873D1002F71D1A06A20F4885040F036
:1007C0000200A062E16960680843217B40EA4100C1
:1007D0000643A068B0F5807F02D0A068012802D14E
:1007E0004FF4807000E000200543207D012811D1E6
:1007F000207B38B9A069401E4FF4006141EA4030C7
:10080000054307E0A06A40F02000A062E06A40F0E3
:100810000100E0622068406820F4694028432168B4
:10082000486020688068214908403043216888601A
:10083000A068B0F5807F02D0A068012802D14FF4F3
:10084000807000E00020B0F5807F03D1208A401E38
:100850004FEA00582068C06A20F4700040EA08009F
:100860002168C8622068806811490840B04208D1F8
:100870000020E062A06A20F0020040F00100A062C7
:1008800011E0A06A20F0020040F01000A062E06ACF
:1008900040F00100E062012705E0FFE7A06A40F0B8
:1008A0001000A062012738466BE70000FDF7E1FF6A
:1008B000FE0E1FFF10B586B0044600200290039084
:1008C0000490059014492068884222D100BF134843
:1008D000806940F40070114988610846806900F41D
:1008E0000070019000BF00BF00BF0846806940F063
:1008F000040088610846806900F00400019000BF90
:1009000000BF082002900320039002A9044800F0D1
:10091000D1F906B010BD00000024014000100240D3
:1009200000080140F8B504460D460026002000905E
:10093000002700F055FB06462068806800F48070B0
:1009400050B1A06A40F02000A06200BF002084F8EF
:10095000240000BF0120F8BD2068406800F48070CA
:1009600020BB2068C06A00F47000F8B917E0681C6A
:10097000A8B125B100F034FB801BA8420FD9206834
:10098000006800F0020050B9A06A40F00400A062C4
:1009900000BF002084F8240000BF0320DBE72068AC
:1009A000006800F002000028E1D053E0022000F0CF
:1009B000EFFB38490968B1FBF0F021680969364A54
:1009C000114091B92168C9689211114069B9216833
:1009D0000969324A114031B92168C9689211114040
:1009E00009B9142117E0292115E0216809692B4A6A
:1009F000114021B92168C9689211114041B12168A3
:100A00000969274A114029B92168C968114009B903
:100A1000542100E0FC2100FB01F718E0681C98B1AC
:100A200025B100F0DDFA801BA8420DD90098B8422C
:100A30000AD2A06A40F00400A06200BF002084F83F
:100A4000240000BF032086E70098401C0090009817
:100A5000B842E3D36FF0120021680860A06A40F446
:100A60000070A0622068806800F46020B0F5602FFC
:100A70000DD1207B58B9A06A20F48070A062A06AD2
:100A800000F4805018B9A06A40F00100A062002074
:100A900061E70000100000202449922492244912AA
:100AA0004992240070B50446002500BF94F8240044
:100AB000012801D1022070BD012084F8240000BF6C
:100AC0002046FFF7BDFC0546002D77D1A06A40F215
:100AD0000121884340F48070A0623C49206888422C
:100AE00008D13B48006800F4702008B9012002E0FA
:100AF000002000E0012078B1A06A20F48010A062FC
:100B00002068406800F4806000B3A06A20F40050C0
:100B100040F48050A06219E0A06A40F48010A06206
:100B20002B49091F2068884203D028492068884241
:100B300004D12748006800F4806000E0002028B15C
:100B4000A06A20F4005040F48050A062A06A00F433
:100B5000805020B1E06A20F00600E06201E0002051
:100B6000E06200BF002084F8240000BFC01E21689E
:100B700008602068806800F46020B0F5602F16D10E
:100B800012492068884208D11148006800F470209A
:100B900008B9012002E0002000E0012038B12068FF
:100BA000806840F4A000216888600CE006E02068BE
:100BB000806840F480102168886004E000BF002055
:100BC00084F8240000BF284675E700000028014093
:100BD0000424014070B5044600F002FA064625469A
:100BE000681C10B104480078054400BF00F0F8F913
:100BF000801BA842FAD370BD0C0000202DE9F04103
:100C00000446022C20D122480078401C204908705C
:100C10000846007800F0010508460078C0F3400659
:100C200008460078C0F380072A46E101194800F021
:100C3000D1F932462102174800F0CCF93A46610258
:100C4000144800F0C7F921E0042C1FD110480078A7
:100C5000401E0F4908700846007800F0010508465C
:100C60000078C0F3400608460078C0F380072A46A3
:100C7000A101084800F0AEF93246E101054800F054
:100C8000A9F93A462102034800F0A4F9BDE8F08131
:100C9000000000200014014010B50446044800681C
:100CA000204020B1024804602046FFF7A7FF10BD96
:100CB000140401402DE9F8470346002294466EE1F2
:100CC0004FF0010808FA02F4D1F8008008EA0400A5
:100CD000A0427DD1DFF8DCA2D1F80480A8EB0A099C
:100CE000D0453AD014DCB8F1030F50D009DCB8F18C
:100CF000000F31D0B8F1010F1CD0B8F1020F49D16B
:100D000020E0B8F1110F18D0B8F1120F42D11EE057
:100D1000B9F5881F25D006DCB9F5803F20D0B9F59C
:100D2000801F37D11AE0B9F5001F18D0B9F5041F9C
:100D300030D117E0D1F80CC02DE0D1F80C8008F1CB
:100D4000040C28E0D1F80C8008F1080C23E0D1F85D
:100D50000C8008F10C0C1EE000BF00BF00BF00BFFC
:100D600000BF00BFD1F80880B8F1000F02D14FF0EA
:100D7000040C0BE0D1F80880B8F1010F03D14FF05B
:100D8000080C1C6102E04FF0080C5C6103E04FF0BE
:100D9000000C00E000BF00BFFF2801D8984601E02A
:100DA00003F104084646FF2802D84FEA820803E010
:100DB000A2F108084FEA88084746D6F800804FF0AD
:100DC0000F0909FA07F928EA09080CFA07F900E0FF
:100DD00088E048EA0908C6F80080D1F8048008F0E5
:100DE0008058B8F1805F7DD100BFDFF8CC81D8F8A2
:100DF000188048F00108DFF8C091C9F81880C8468B
:100E0000D8F8188008F00108CDF8008000BF00BFB6
:100E10004FEAB9384FEA920958F829504FEA8278D8
:100E20004FEA18794FF00F0808FA09F825EA080583
:100E3000DFF88881434502D14FF0000816E0DFF863
:100E40008081434502D14FF001080FE0DFF8748143
:100E5000434502D14FF0020808E0DFF86C814345BA
:100E600002D14FF0030801E04FF004084FEA827905
:100E70004FEA197908FA09F848EA0505DFF84C81C4
:100E80004FEA920948F82950D1F8048008F48038D4
:100E9000B8F5803F0AD1DFF83881D8F8008048EAF9
:100EA0000008DFF82C91C9F8008009E0DFF8208104
:100EB000D8F8008028EA0008DFF81491C9F800800B
:100EC000D1F8048008F40038B8F5003F10D1DFF8FD
:100ED000008108F10408D8F8008048EA0008DFF82B
:100EE000F09000E05AE009F10409C9F800800DE033
:100EF000DFF8DC8008F10408D8F8008028EA000850
:100F0000DFF8CC9009F10409C9F80080D1F8048019
:100F100008F48018B8F5801F0ED1DFF8B48008F10E
:100F20000808D8F8008048EA0008DFF8A49009F122
:100F30000809C9F800800DE0DFF8948008F108087E
:100F4000D8F8008028EA0008DFF8849009F1080941
:100F5000C9F80080D1F8048008F40018B8F5001F23
:100F60000ED1DFF86C8008F10C08D8F8008048EA50
:100F70000008DFF85C9009F10C09C9F800800DE069
:100F8000DFF84C8008F10C08D8F8008028EA000847
:100F9000DFF83C9009F10C09C9F80080521CD1F827
:100FA000008028FA02F8B8F1000F7FF489AEBDE89E
:100FB000F8870000000011100010024000080140F6
:100FC000000C0140001001400014014008000140E5
:100FD000000401400AB1016101E00B0403617047A4
:100FE00001480068704700000400002003480068C2
:100FF000034909780844014908607047040000204B
:101000000C00002010B50848006840F010000649A8
:101010000860032000F0A8F80F2000F007F800F0A7
:101020002BF8002010BD00000020024070B50446DF
:101030000E4800784FF47A71B1FBF0F00C49096862
:10104000B1FBF0F5284600F0E3FE08B1012070BDC9
:10105000102C07D200222146501E00F047F8054808
:10106000046001E00120F2E70020F0E70C0000201E
:10107000100000200800002008B500BF114880695A
:1010800040F001000F4988610846806900F00100C6
:10109000009000BF00BF00BF0846C06940F080500C
:1010A000C8610846C06900F08050009000BF00BFD2
:1010B00000BF0549486820F0E06040F000704860DB
:1010C00000BF08BD00100240000001400146084674
:1010D000002809DB00F01F0301229A4043099B000E
:1010E00003F1E023C3F8002100BF70472DE9F05F52
:1010F00080460D461646002700F09AFF07463946FF
:101100002A46334601F00700C0F1070ABAF1040F7E
:1011100002D94FF0040A01E0C0F1070AD14600F1FC
:10112000040ABAF1070F02D24FF0000A01E0A0F161
:10113000030AD4464FF0010A0AFA09FAAAF1010A91
:101140000AEA020A0AFA0CFA4FF0010B0BFA0CFB3E
:10115000ABF1010B0BEA030B4AEA0B0421464046B4
:1011600000F06EFFBDE8F09F00BF00F00702064BE5
:1011700019684FF6FF031940044B0B4343EA022161
:10118000014B196000BF70470CED00E00000FA054C
:101190002DE9F04F89B080467CA1D1E90023D1E947
:1011A0000201CDE90523CDE907017CA3D3E90102C2
:1011B0001968DB6802AC0DC401914FF000090025ED
:1011C0000026AB46AA460027002400200090B8F174
:1011D000040F59D006DCB8F1010F76D0B8F1020F38
:1011E00074D1C0E0B8F1080F72D0B8F1100FF7D188
:1011F0006E484468006800F08070002843D005A85D
:10120000C4F38341465C04F4803058B36748C06A35
:1012100000F00F0001A911F800906448C06A00F4C2
:101220008030A0B16148C06AC0F30310471C5F481A
:10123000C06AC0F3032000F1020B5D48B0FBF7F079
:1012400000FB0BF0B0FBF9F000FB06F504E058489A
:10125000B0FBF9F000FB06F59DF82100B04204D187
:101260006D0802E0534806FB00F55048406800F462
:101270008000B0F5800F01D1009504E068000321E3
:10128000B0FBF1F000907BE04848C06A00F4003009
:1012900018B900F075FA009016E04448006800F0B4
:1012A000805088B14148C06AC0F30310471C3F48D2
:1012B000C06AC0F3033000F1020A3D48B0FBF7F00A
:1012C00000FB0AF0400000905AE022E057E0FFE700
:1012D0003648C06A00F4802018B900F051FA009036
:1012E00016E03248006800F0805088B12F48C06A8C
:1012F000C0F30310471C2D48C06AC0F3033000F14F
:10130000020A2B48B0FBF7F000FB0AF04000009007
:1013100036E02648046A04F44070B0F5807F06D1B8
:1013200004F0020018B14FF4004000901AE004F4F9
:101330004070B0F5007F08D11C48406A00F0020000
:1013400018B149F6404000900CE004F44070B0F54C
:10135000407F07D11548006800F4003010B14FF20B
:10136000244000900CE000F0FBF910494968C1F3FB
:101370008131491C4900B0FBF1F0009000E000BF52
:1013800000BF009809B0BDE8F08F00000000040520
:101390000607080900000000000D00000102030418
:1013A00005060708090A0B0C0D0E0F10001002406D
:1013B00000127A0000093D002DE9F843044600269A
:1013C00000250027207800F0010000286ED0A846F4
:1013D0007948C06900F0805078B900BF7648C0698C
:1013E00040F080507449C8610846C06900F08050E0
:1013F000009000BF00BF4FF001087048006800F483
:101400008070B8B96D48006840F480706B4908601E
:10141000FFF7E6FD064607E0FFF7E2FD801B6428C4
:1014200002D90320BDE8F8836448006800F48070A6
:101430000028F1D06048006A00F440752DB3A08800
:1014400000F44070A84220D05B48006A20F4407548
:1014500001205B490860002008605748056205F0DC
:10146000010090B1FFF7BCFD064608E0FFF7B8FDAC
:10147000801B41F28831884201D90320D2E74E48CF
:10148000006A00F002000028F0D04B48006A20F407
:1014900040706168084348490862B8F1010F04D1FF
:1014A0000846C06920F08050C86100BF207800F075
:1014B0000200022807D14048406820F44040A1685B
:1014C00008433D494860207800F00400042807D113
:1014D0003948C06A20F40030E16808433649C862E0
:1014E000207800F00800082807D13348C06A20F4AB
:1014F0008020216908433049C8622F48C06A00F43F
:10150000003020B92C48C06A00F4802000B10127C7
:10151000012F41D12848006800F0805090BB264838
:10152000006800F0806040B12348C06A00F0F0011C
:10153000A069814201D0012074E71F48C06A20F0F1
:10154000F000A16908431C49C8620846C06A20F43B
:101550007040616908431849C86201201949086749
:10156000FFF73EFD064606E0FFF73AFD801B6428C4
:1015700001D9032056E71048006800F00050002809
:10158000F2D009E0FFE70C48C06A00F470406169DE
:10159000884201D0012045E7207800F01000102893
:1015A00007D10548406820F48000E16908430249FA
:1015B0004860002036E70000001002400070004044
:1015C000400442420000424270B504460D460CB948
:1015D000012070BD5A48006800F00700A8420ED2F2
:1015E0005748006820F0070028435549086008461E
:1015F000006800F00700A84201D00120E9E7207848
:1016000000F0020002281DD1207800F00400042818
:1016100005D14C48406840F4E0604A494860207871
:1016200000F00800082805D14648406840F46050A2
:10163000444948604348406820F0F000A1680843EE
:1016400040494860207800F0010078B360680128C4
:1016500006D13C48006800F4003090B90120B8E79A
:101660006068022806D13748006800F0007040B971
:101670000120AEE73348006800F0020008B90120FD
:10168000A7E73048406820F00300616808432D490F
:101690004860FFF7A5FC064609E0FFF7A1FC801BA8
:1016A00041F28831884202D9032092E707E02548B9
:1016B000406800F00C006168B0EB810FEDD120486C
:1016C000006800F00700A8420ED91D48006820F00D
:1016D000070028431A4908600846006800F0070020
:1016E000A84201D0012074E7207800F0040004280B
:1016F00007D11448406820F4E060E16808431149CC
:101700004860207800F00800082808D10D4840689B
:1017100020F46050216940EAC1000A49486000F0A5
:101720002FF808494968C1F30311074A515CC840C2
:101730000649086006480068FFF778FC002048E783
:10174000002002400010024030210008100000205C
:1017500008000020014800687047000010000020C9
:1017600000B5FFF7F7FF04494968C1F3C221034AF6
:10177000515CC84000BD000000100240402100083C
:101780002DE9F04F8BB03CA2D2E901311068D2684C
:10179000CDE908310A9207903BA3D3E90020D3E9B1
:1017A000021304AC0BC403924FF00009CB46CA46A7
:1017B000002400200290019000903748D0F8049057
:1017C00009F00C0000284FD0042802D008284AD184
:1017D00002E0324802904AE007A8C9F38341445C22
:1017E00009F48030C0B32C48C06A00F00F0003A990
:1017F00011F800B02848C06A00F4803008B32648C9
:10180000C06AC0F30310401C01902348C06AC0F3B3
:101810000320801C00900198A0FB0B5006461F4936
:101820000098A1FB00210023A2FB047C01FB04C162
:1018300002FB03112A4633463846FEF7F7FC824680
:1018400003E016486043B0FBFBFA9DF82900A04274
:1018500006D14FEA5A0A03E0FFE7114804FB00FAF9
:10186000CDF808A003E000BF0C48029000BF00BF05
:1018700002980BB0BDE8F08F0000040506070809C8
:1018800000000000000D0000010203040506070827
:10189000090A0B0C0D0E0F100010024000127A0006
:1018A00000093D00F8B504460CB90120F8BD2078C8
:1018B00000F00100002878D0FD48406800F00C00DE
:1018C00004280CD0FA48406800F00C00082811D118
:1018D000F748406800F48030B0F5803F0AD1F44802
:1018E000006800F4003000285FD0A06800285CD1B8
:1018F0000120DBE700BFA068B0F5803F06D1EC48CF
:10190000006840F48030EA49086028E0A06858B9CF
:10191000E748006820F48030E54908600846006820
:1019200020F4802008601AE0A068B0F5A02F0BD149
:10193000DF48006840F48020DD4908600846006800
:1019400040F4803008600AE0D948006820F4803014
:10195000D74908600846006820F48020086000BF6E
:10196000A06888B1FFF73CFB054606E0FFF738FBAF
:10197000401B642801D9032098E7CD48006800F493
:1019800000300028F2D010E0FFF72AFB054606E001
:10199000FFF726FB401B642801D9032086E7C448D3
:1019A000006800F400300028F2D1207800F0020036
:1019B000022857D1BE48406800F00C0050B1BC4826
:1019C000406800F00C00082818D1B948406800F4BD
:1019D000803098B9B648006800F0020020B1606914
:1019E000012801D0012061E7B148006820F0F8002B
:1019F000A16940EAC100AE49086033E06069E8B11E
:101A00000120AC490860FFF7EBFA054606E0FFF756
:101A1000E7FA401B022801D9032047E7A4480068E1
:101A200000F002000028F2D0A148006820F0F80081
:101A3000A16940EAC1009E49086013E000209D4969
:101A40000860FFF7CDFA054606E0FFF7C9FA401B2C
:101A5000022801D9032029E79548006800F0020018
:101A60000028F2D1207800F0080008282DD1E06984
:101A7000B8B1012090490860FFF7B2FA054606E0C8
:101A8000FFF7AEFA401B022801D903200EE7884871
:101A9000406A00F002000028F2D0012000F06EFA47
:101AA00013E0002084490860FFF79AFA054606E033
:101AB000FFF796FA401B022801D90320F6E67C487E
:101AC000406A00F002000028F2D1207800F0040003
:101AD000042873D100277648C06900F0805070B99F
:101AE00000BF7348C06940F080507149C861084622
:101AF000C06900F08050009000BF00BF01276F4810
:101B0000006800F48070B0B96C48006840F48070E0
:101B10006A490860FFF764FA054606E0FFF760FAD5
:101B2000401B642801D90320C0E66448006800F423
:101B300080700028F2D000BF2069012806D15C48DF
:101B4000006A40F001005A49086227E0206958B94C
:101B50005748006A20F00100554908620846006AAB
:101B600020F00400086219E0206905280BD15048D4
:101B7000006A40F004004E4908620846006A40F0DE
:101B8000010008620AE04A48006A20F00100484962
:101B900008620846006A20F00400086200BF20695D
:101BA000A0B1FFF71DFA054609E0FFF719FA401B3F
:101BB00041F28831884202D9032077E622E03C488E
:101BC000006A00F002000028EFD012E0FFF708FAE8
:101BD000054608E0FFF704FA401B41F288318842CD
:101BE00001D9032062E63248006A00F002000028B2
:101BF000F0D1012F05D12E48C06920F080502C492A
:101C0000C86100BFE06AA0B32948406800F4803092
:101C1000B0F5803F0ED12648406800F00C0008283F
:101C200008D12348C06A00F48030B0F5803F01D16C
:101C300001203BE6E06A022850D11D48006800F010
:101C4000805040B11A48C06A00F0F001606B8142D8
:101C500001D001202AE6002016498866FFF7C0F966
:101C6000054607E0FFF7BCF9401B642802D90320B2
:101C70001CE64DE00E48006800F000600028F1D13D
:101C80000B48C06A20F0F000616B08430849C86245
:101C90000846C06A20F47060216B08430449C8629A
:101CA000012004498866FFF79BF905460FE0000014
:101CB0000010024000004242800442420070004096
:101CC000FFF78EF9401B642801D90320EEE54E484A
:101CD000006800F000600028F2D019E04A48C06AAD
:101CE00020F480304849C862002048498866FFF7E0
:101CF00077F9054606E0FFF773F9401B642801D920
:101D00000320D3E54048006800F000600028F2D1CD
:101D1000206AE0B33C48406800F00C0008285ED020
:101D2000206A022846D1002038490866FFF758F992
:101D3000054606E0FFF754F9401B022801D90320AD
:101D4000B4E53148006800F000700028F2D1606A04
:101D5000B0F5803F0DD12C48C06A616808432A491C
:101D6000C8620846C06A20F00F00E16808432649AF
:101D7000C862D4E9090108432349496821F4741170
:101D800008432149486001202049086600E038E006
:101D9000FFF726F9054606E0FFF722F9401B022867
:101DA00001D9032082E51848006800F0007000287F
:101DB000F2D026E0002015490866FFF711F9054624
:101DC00006E0FFF70DF9401B022801D903206DE55D
:101DD0000D48006800F000700028F2D111E0206A80
:101DE000012800D162E50848466806F48031606A3F
:101DF000814204D106F47011A06A814201D0012011
:101E000054E5002052E5000000100240000042426C
:101E100070B504462546681EB0F1807F01D30120CD
:101E20000FE0681E4FF0E02148610F214FF0FF30B6
:101E300000F006F900204FF0E021886107200861DA
:101E4000002070BD00BFFEE70EB50020009001909D
:101E50000290124812490860002111488160017304
:101E600001754FF46021C16100200D4948600121D6
:101E70000B480161FEF77CFC08B1FEF736FB03203E
:101E80000090012001900020029069460448FEF76E
:101E9000BBFB08B1FEF729FB0EBD0000002401408A
:101EA0001400002000B585B000200190029003903E
:101EB000049000BF2A48806940F0040028498861E6
:101EC0000846806900F00400009000BF00BF00BF1A
:101ED0000846806940F0080088610846806900F083
:101EE0000800009000BF00BF00BF0846806940F0B6
:101EF000200088610846806900F02000009000BF43
:101F000000BF00224FF4E0611648FFF763F8062097
:101F10000190154802900020039001A91348FEF794
:101F2000C9FE4FF4E0600190012002900020039070
:101F30000220049001A90B48FEF7BCFE00221146C6
:101F40000720FFF7D3F80720FFF7C0F8002211465B
:101F50000820FFF7CBF80820FFF7B8F805B000BD60
:101F6000001002400014014000001110000C01405C
:101F700000BFFEE700BFFEE77047000008B5084954
:101F80000968C9084FF47A72B1FBF2F1414300913C
:101F900000BF00BF00994A1E00920029F9D108BD78
:101FA00010000020704710B5FFF720F810BD0000AA
:101FB00000B59BB038210DA8FEF7AFF9142108A891
:101FC000FEF7ABF920216846FEF7A7F902200D9035
:101FD00001201290102013900020159018900DA849
:101FE000FFF760FC08B1FEF780FA0F200890002090
:101FF00009900A900B900C90002108A8FFF7E4FAD2
:1020000008B1FEF772FA02200090002002906846A4
:10201000FFF7D2F908B1FEF768FA01200149086715
:102020001BB000BD00004242704700BFFEE7000049
:1020300002480068C0F30220704700000CED00E089
:1020400010B5002804DB0A07130E054A135406E0F6
:102050000A07140E034A00F00F031B1FD45410BDCF
:1020600000E400E018ED00E0FEF7CCFFFFF7A0FF72
:10207000FFF718FFFFF7E8FE2B48FEF739FA0024B8
:1020800050E02948FEF70EFD00BF4FF47A71264854
:10209000FEF748FC002842D12348FEF765FB0446C2
:1020A000B4F59B6F05D9012211022048FEF792FF7B
:1020B00005E000224FF400711C48FEF78BFF40F250
:1020C0004570844205D3012291021848FEF782FF31
:1020D00005E000224FF480711448FEF77BFF40F6C4
:1020E000B210844205D3012251021048FEF772FF5C
:1020F00005E000224FF400710C48FEF76BFF40F63C
:102100001F40844205D3012291020848FEF762FF76
:1021100005E000224FF480610448FEF75BFF642075
:10212000FEF758FDADE70000140000200014014048
:102130000000000000000000010203040607080977
:1021400000000000010203046821000800000020D4
:10215000140000008C0100087C21000814000020FD
:1021600094060000A8010008000000000000000024
:0C21700010000000010000000024F4003A
:04000005080001519D
:00000001FF
